:0200000480007A
:10000000B7000080678080007350403073504034E8
:1000100081400141814101428142014381430144C8
:100020008144014581450146814601478147014898
:10003000814801498149014A814A014B814B014C68
:10004000814C014D814D014E814E014F814F9731C1
:10005000000093816133732640F1B7020000938260
:10006000020063F4C2006F20E05B178100001301FF
:1000700061F9B712000093820280B3025602330185
:100080005140330401006F004000411106C6972023
:100090000000E780A04B2DC197200000E780E04AD8
:1000A00037350080130505C3B73500809385C5C279
:1000B00063F7A50023A005009105E3EDA5FE373504
:1000C00000809305C5C237350080130545B86375B8
:1000D000B502130645006363B600B2851346F5FF0B
:1000E000B295F19913864500B7350080938545B8E0
:1000F00097200000E780404B97200000E780E05108
:1001000097100000E780C04100000000397106C070
:1001100016C21AC41EC672C876CA7ACC7ECE2AD03F
:100120002ED232D436D63AD83EDA42DC46DE330519
:100130000100EF00A002824092422243B243424EAD
:10014000D24E624FF24F025592552256B256425746
:10015000D2576258F258216173002030411106C60F
:1001600022C42A8497200000E780A043634A050048
:1001700022852244B2404101172300006700A33CBE
:10018000B7050080FD156D8DB145637EB5000A058C
:10019000B7350080938545B52E951C4189C722440B
:1001A000B240410182872244B2404101172300003E
:1001B00067008339144150412E85B685172300000E
:1001C000670023B8372500809306956609462E857B
:1001D000B685172300006700C3B682808280411174
:1001E0001305000802C663F4A500054649A813D507
:1001F000B50019ED13D5650093F5F503136505FCFE
:100200002306A10093E50508A306B1000946BDA099
:1002100013D505011DE513D5C50013D6650093F56B
:10022000F503136505FE2306A1001376F603136696
:100230000608A306C10093E505082307B1000D4693
:1002400035A813D5250113D6C50093D6650093F5BF
:10025000F503136505FF2306A1001376F603136665
:100260000608A306C10013F6F60313660608230763
:10027000C10093E50508A307B1001146AA856800EF
:100280002A96B70602F0D84241831377F70F65DF4D
:1002900093F5F50F05058CC26305C5008345050080
:1002A000DDB7014541018280797106D60841D04908
:1002B00094492AC632D236D0C8459045D4418C41A3
:1002C0002ACE32CC36CA2EC8372500809305C566A3
:1002D0006800100897200000E780E0E3B250456115
:1002E000828005C23385C500370602F083C605004B
:1002F000584241831377F70F65DF850514C2E397F2
:10030000A5FE014582805D7186C6A2C4A6C2CAC090
:10031000B7360080938446B883A6C4082A892EC4C1
:1003200032C636CAB9C648082ACC3725008013051C
:1003300025942ACE138544002AD237250080130540
:10034000856E2AD4094422D602D828082ADC05451D
:100350002ADE372500809305C566481030109720A7
:100360000000E78040DB01C52300890085A8A24585
:10037000324623A4C408454523A6C4086376A606CE
:1003800037350080130445B8130504099720000091
:10039000E780802128002ACC370500801305451B03
:1003A0002ACE130544002AD2372500801305C56FD5
:1003B0002AD405452AD602D82C082EDC2ADE372579
:1003C00000809305C5664810301097200000E78034
:1003D00080D4894511E199452300B9000649964426
:1003E0002644B64061618280C14532859720000075
:1003F000E78040EB0000797106D6372500801305B1
:1004000045712AC0370500801305451B2AC23726CF
:1004100000801306467332C42AC6884DCC4D373649
:100420000080130606A432C8094632CA02CC8A8666
:1004300036D032D2100897200000E780C0CDB250ED
:1004400045618280117186DFA2DDA6DBCAD9CED7D5
:10045000D2D5D6D3DAD1DECFE2CDE6CBEAC9EEC72C
:1004600097200000E78060122A8A2145972000002B
:10047000E780601237350080930545B803C5050A4B
:100480000946814C6303C500AE8C6319C502137520
:100490008A0011C5214597200000E780600FBE4DFE
:1004A0004E4DDE4C6E4CFE4B0E5B9E5A2E5ABE5984
:1004B0004E59DE546E54FE5011618280930D410BF3
:1004C0001309410BB70A02F0ED480548094F3735CB
:1004D000008013054584AACA370500801305451B13
:1004E000AAD037350080130C45B813054C00AACEAE
:1004F000373500801305058CAAC8373500801305F1
:10050000058DAAC6372500801305C566AACC3725F8
:10051000008013050563AAD21D651305F5E6AAC47C
:100520003735008013052581AAC237656C70130525
:100530008556AAC0373500801305B5802ADE3735C9
:100540000080130555812ADC373500801305B581FD
:100550002AD2373500801305D5812ADA3735008055
:100560001305C5822AD8373500801305C5842AD6DD
:10057000372500801305C56F2ACE37250080130567
:1005800005742AD41303B0054165130505F02AD07C
:10059000C17B914983A50A0113F6250013050010BC
:1005A00011EE13F5150011E903A54A00618105E577
:1005B00013750BF09365450029A00145B3757B01C8
:1005C000C98D6A85268413F6F50F2E8B2A8DA28499
:1005D000E31236FD6DBD03A40A009375F40F638228
:1005E00015076398650003C51C0A01C523000C0BA1
:1005F00075A303450C0A29C9A3800C0A23000C0A21
:1006000013052004634AB50413051004638BA50E7B
:10061000130520046394A5580325CC0883258C0872
:1006200003C63C0A2D8D13351500B335C0006D8D02
:100630006316052C03A54A0041811375F50F7DD97A
:1006400099ABA3800C0B99AB03C51C0A25C5A380ED
:100650000C0A23000C0A99A3130530046388A50C27
:1006600013054004639CA5520325CC080DCD7D15D0
:100670002326AC0803A54A0041811375F50F7DD9E7
:1006800023A01A0103A54A0041811375F50F7DD9F6
:1006900023A06A0003A54A0041811375F50F7DD997
:1006A00013054004D5A903A54A0041811375F50F30
:1006B0007DD9D5A131456344B50C21456388A50C8E
:1006C00025456390A53003C52C0A0DC50326CC082B
:1006D0004545E37AA65A0819B28597200000E780BD
:1006E00020BECA555A596A55E39805002A84014527
:1006F0006F00D00003A54A0041811375F50F7DD925
:1007000059A90325CC0883258C0803C63C0A2D8DE6
:1007100013351500B335C0006D8D6317052203A591
:100720004A0041811375F50F7DD9B5A10325CC0889
:1007300083258C08637EB50205052326AC0803A536
:100740004A0041811375F50F7DD923A01A0103A535
:100750004A0041811375F50F7DD923A06A0003A5D6
:100760004A0041811375F50F7DD9130530042DA181
:1007700003A54A0041811375F50F7DD929A9354597
:10078000638EA5201305F007639DA5228325CC0861
:10079000638F051403258C089386F5FF63F2A53A51
:1007A0004546E37CC54A3306B5404145118DE369B2
:1007B000D55013850C09AA95369597200000E7803F
:1007C00000E00325CC0883258C087D152326AC0882
:1007D0001385F5FF2324AC0803A54A004181137556
:1007E000F50F7DD9ED4823A01A011303B00503A529
:1007F0004A0041811375F50F7DD923A06A00054891
:10080000094F03A54A0041811375F50F7DD91305E2
:10081000400423A0AA0003A54A0041811375F50FE7
:100820007DD923A01A0103A54A0041811375F50F54
:100830007DD923A06A0003A54A0041811375F50FF5
:100840007DD91305300723A0AA0003A54A004181E2
:100850001375F50F7DD923A01A0103A54A00418124
:100860001375F50F7DD923A06A0003A54A004181C5
:100870001375F50F7DD91305B00423A0AA00032535
:10088000CC0803268C08E367A640C545E37DB63E49
:100890006306C502B385CC009385050966951305EB
:1008A00005090346050083A64A00C18293F6F60FA8
:1008B000FDDA050523A0CA00E315B5FE03A54A002D
:1008C00041811375F50F7DD923A01A0103A54A00B4
:1008D00041811375F50F7DD923A06A0003A54A0055
:1008E00041811375F50F7DD91305500775A403A534
:1008F0004A0041811375F50F7DD971AC03264C0870
:100900000325CC079335160093361500D58D639DCE
:10091000051483550C087D162322CC0879CA83D68A
:100920002C0819A07D1671C641677D176D8F637DF8
:10093000A7129145E308D7FEE145B305B702E2955A
:10094000F10583D56501F9BF0325CC0783254C0844
:1009500013361500B3C6A50093B61600558E631561
:10096000061A03560C08938615002322DC086384BC
:10097000051083D62C0819A0FD15F5CD41677D170C
:10098000718F6373A7181146E308D7FE61463306DB
:10099000C7026296710603566601F9BF03268C08EA
:1009A0004545E372A62E0819B28597200000E7801E
:1009B0002091CA55DA526A55639705462A84014543
:1009C000ADA113B50502138615F813361600518D27
:1009D0006308051A1315840082556D8DB3757B016C
:1009E000336BB50013652B001375F50FE304E5BBFE
:1009F000C1A263FBA50661453385A502B305AC0022
:100A00001385C50182C1084102DF02DD02DB130646
:100A1000F5FF02D91C19BD4663E1C6020146938663
:100A20000502AA85038706003E962302E6004A5681
:100A300085060506FD1532D9F5F5C14533B5A50086
:100A4000E31005264A56B2D45A55EA55FA560E47CF
:100A5000AAD6AED8B6DABADCBAC136DF2EDD2ADBCA
:100A600032D92809EE8551A003A54A0041811375AA
:100A7000F50F7DD945A06379A60861453305A60227
:100A8000B305AC001385C50182C1084102DF02DD58
:100A900002DB1306F5FF02D91C19BD4663E1C6024D
:100AA000014693860502AA85038706003E96230227
:100AB000E6004A5685060506FD1532D9F5F5C1450D
:100AC00033B5A500E31E051C4A56B2D45A55EA5563
:100AD000FA560E47AAD6AED8B6DABADCBAC136DFB5
:100AE0002EDD2ADB32D92809CA8597000000E7806D
:100AF000C08183458109ED480548094F1303B005BE
:100B000019456390A50259A803A54A0041811375B0
:100B1000F50F7DD91D4523A0AA0099451945638F7E
:100B2000A5060345A109034691098306B1092205DB
:100B3000498EC2067A440A55558E2206D18D61B47B
:100B40002326DC087D152324AC0803A54A00418137
:100B50001375F50F7DD9214523A0AA0003A54A00EE
:100B600041811375F50F7DD91305000223A0AA005A
:100B700003A54A0041811375F50F7DD9214529A8A8
:100B80000325CC0841466316C54803A54A004181A8
:100B90001375F50F7DD91D4523A0AA0013750BF021
:100BA000136B250013652B001375F50FE304E59F08
:100BB0001945636BA51713152D0096552E95084101
:100BC000028503A54A0041811375F50F7DD935458E
:100BD00023A0AA0003A54A0041811375F50F7DD912
:100BE00069A003C5140083C5040022054D8DA645E8
:100BF000631CB51203A50C004C457D76F18D93E581
:100C0000F5054CC523020C0B03A54A004181137561
:100C1000F50F7DD9354523A0AA0003A54A004181DF
:100C20001375F50F7DD991A00D4626859645972021
:100C30000000E780809C094F05487DE503A50C0076
:100C40004C457D76F18D4CC523020C0A03A54A0064
:100C500041811375F50F7DD9354523A0AA0003A561
:100C60004A0041811375F50F7DD9294523A0AA00BB
:100C7000D5A019462685E25597200000E780E09729
:100C8000094F054855E103454C0AD25511C192550B
:100C90001335150013652500AED4AAD656452ACDC6
:100CA00006552ACFAC102ED12AD376452AC54255F7
:100CB0002AD98D452EDB32552ADD2EDF2809AAC11F
:100CC000FAC3280151A003C5140083C5040003C65C
:100CD000340083C6240022054D8D93158600D58DE2
:100CE000C2054D8D86456311B50422558345050027
:100CF00003A64A0041821376F60F7DDA05053726F2
:100D00000080130606741306B60C23A0BA00E31F76
:100D1000C5FC89A015462685F25597200000E7807E
:100D2000C08D094F054825CD56452ACD06552ACFF9
:100D30007645AAD446452AD97ADB36452ADD7ADFBC
:100D40002809AAC1C2C3A8101019E64597100000CF
:100D5000E780603C03A54A0041811375F50F7DD9FA
:100D60001305300223A0AA0003A54A004181137590
:100D7000F50F7DD91305E00323A0AA00ED4805482F
:100D8000094F1303B00503A54A0041811375F50F00
:100D90007DD91305000223A0AA006FF0AFFF232620
:100DA0000C0823240C0803A54A0041811375F50F94
:100DB0007DD9ED4523A0BA001306B00503A54A006E
:100DC00041811375F50F7DD923A0CA0003A54A0000
:100DD00041811375F50F7DD91305800423A0AA0066
:100DE00003A54A0041811375F50F7DD923A0BA00F0
:100DF00003A54A0041811375F50F7DD923A0CA00D0
:100E000003A54A0041811375F50F7DD91305200311
:100E100023A0AA0003A54A0041811375F50F7DD9CF
:100E20001305A004A1B516848D42ED480548094F6D
:100E30001303B00581C58D456FF0EFF866C652C447
:100E400061466304045203550C088323CC072AC26D
:100E5000637B7540324583572508924D6E8A62CA7E
:100E600016C829A04A8ACA8D637F793E3305CA0213
:100E70003307AC001305C701C165FD15B3FCBD0008
:100E800011496384FC00035965010841E31C85FC9A
:100E900013050702968522861E8C3ACCBE8B9710CE
:100EA0000000E7808075DE87C17B6247E283524C99
:100EB000C24261461303B005094F0548ED485DF194
:100EC00012466300963B63777A5A614E03550703D7
:100ED0006375755AB3C6FC008355270393BE16008D
:100EE000B306C503E2962399B60263820E34B24577
:100EF0002391A508E146A1A64A840D49ED4805487D
:100F0000094F1303B00589C58D451309410BE5A8A9
:100F100079CC83268C0063E3860283254C004A85C6
:100F20002EC8228636CC97100000E780006DE2467E
:100F30001303B005094F0548ED4839C983260C0154
:100F400063E386028325CC004A852EC8228636CCF0
:100F500097100000E780606AE2461303B005094F6E
:100F60000548ED4815C583268C0163E28608832574
:100F70004C014A852EC82286368997100000E780EA
:100F8000C067CA861303B005094F0548ED4825E13F
:100F90004245638C8600637BD454B3058500038689
:100FA00005009305F0FB63D3C554B382864082C12C
:100FB00002DF02DD02DB9385F2FF02D99303010B0E
:100FC0003D466361B6020146B306850096850387F8
:100FD00006001E962302E6004A5685060506FD1504
:100FE00032D9F5F54145333555006307051A03A598
:100FF0004A0041811375F50F7DD91D4523A0AA0034
:1010000099451309410B13F6F50F9946631DD6DA7E
:1010100071B603268C086377C51403A54A00418185
:101020001375F50F7DD923A0BA000325CC0803263C
:101030008C086361A646C5456377B64493061500E0
:10104000098EC145918D63EDD54613870C09B30513
:10105000A7003305D70097100000E780405603250E
:10106000CC08BD4563EBA53E66952308850803259E
:10107000CC0883258C0805052326AC0813851500AC
:101080002324AC08ED481303B00503A54A004181B1
:101090001375F50F7DD923A01A010548094F03A543
:1010A0004A0041811375F50F7DD923A06A0003A57D
:1010B0004A0041811375F50F7DD91305300723A030
:1010C000AA0003A54A0041811375F50F7DD923A01D
:1010D0001A0103A54A0041811375F50F7DD923A09C
:1010E0006A0003A54A0041811375F50F7DD91305E8
:1010F000B00423A0AA000325CC0803268C08636B48
:10110000A638C5456371B6386306C502B385CC0001
:10111000938505096695130505090346050083A611
:101120004A00C18293F6F60FFDDA050523A0CA0036
:10113000E315B5FE03A54A0041811375F50F7DD96E
:1011400023A01A0103A54A0041811375F50F7DD92B
:1011500023A06A0003A54A0041811375F50F7DD9CC
:101160006FF08FF84146637AC52E6695230885088F
:101170000325CC0803268C0805052326AC08130597
:1011800016002324AC0803A54A0041811375F50F0E
:101190007DD923A0BA0019B40E45AADCFA556A56C7
:1011A000DA564A59AEDAB2D8B6D6CAD42AD5032509
:1011B000CC082ED332D136CF330625014ACD636B0E
:1011C000A62CC5456371B62C6695130505096C09F7
:1011D0004A8697100000E780203D0325CC084A95F9
:1011E0002326AC082324AC0868092AC54AC728016D
:1011F0002AC106552AC376452ACB72452AD9054508
:101200002ADB02DD0C01AEC1AAC348091019E6456C
:1012100097100000E78020F0894511E199451309F6
:10122000410BED480548094F1303B005E9BB63F5D1
:101230007524E146B385D502E2952398A50263960D
:10124000030132452311B50911A813052703231003
:10125000C5003305D60262952318B5032310BC09D7
:1012600066866364761082C102DF02DD02DB13054D
:10127000F4FF02D91819BD4563E0A5028145228516
:10128000168683060600BA952382D500CA55050640
:1012900085057D152ED975F5414533358500224AE2
:1012A000B24C930D410B1309410B19C513750BF08B
:1012B000936555006FF0EFB00E452AD57A55EA5583
:1012C0005A56CA562AD32ED132CF36CD639D330318
:1012D00083D32C08614563F833193385A3026295E3
:1012E000831505032391BC08AA554CD59A550A5677
:1012F000FA466A470CD550D114D158CD232805029F
:101300008325CC073DA0E14563FA331F2A55B385F9
:10131000B302E295C8D51A550A56FA466A4788D5E7
:10132000D0D194D1D8CD23A8050293851300232EC4
:10133000BC066395050123917C0835A041657D15A8
:1013400033F6A3006372B61403550C08E146330666
:10135000D60262962319A6026379B5123305D50227
:1013600062952318750223107C0823220C0823247D
:101370000C0823260C085DC4014D224AB24C930D83
:10138000410B1309410B21A0050D63768D043385B4
:10139000A2018345050093F5F50313060002E395CA
:1013A000C5FE3306A441B336C400814591E2B2853F
:1013B0000146630406036388C508B306C50003C776
:1013C000060093061600368693040002E30397FE98
:1013D000369DE36E8DFA228DA9A893351D00334604
:1013E0008D0013361600D18D89E963758D0E0305C6
:1013F00005009305F0FB63DFA50C13061D001335F4
:101400001600B345860093B515004D8D1DE1637C34
:10141000860C3385C200030505009305F0FB63CA03
:10142000A500D1A0228D224AB24C930D410B130985
:10143000410B054B968413652B001375F50F630B59
:10144000E5956FF0EFF6228563638D006A85A285CE
:1014500097100000E78000E50000C14597100000EC
:10146000E78040E4000091451E8597100000E7806A
:1014700060E30000528511A02E859E859710000024
:10148000E78040E20000C145328597100000E78008
:1014900060E10000B28597100000E780A0E0000046
:1014A0003725008013059569B72500809386456C24
:1014B0009305B002300197100000E78080DF000044
:1014C0003725008013054568D54597000000E78063
:1014D000A04600001685A2850146EA869710000006
:1014E000E780A0B000001685A28519A0B685014648
:1014F000A28697100000E78040AF000037250080EB
:1015000013059569B72500809386456D9305B00254
:10151000101997100000E780C0D9000049712326F8
:1015200011162324811623229116232021179710A8
:101530000000E78080052A84214597100000E7809D
:101540008005B735008003C5D5C201C993758400F5
:101550001334150089ED1DE069AE9385D5C20546AB
:101560002380C5009375840013341500EDD5214503
:1015700097100000E780C001630D0436971000004B
:10158000E780A0002A84214597100000E780A00092
:10159000B735008003C5E5C201C9937584001334D3
:1015A000150089ED1DE0B1A69385E5C205462380AF
:1015B000C5009375840013341500EDD521459710AF
:1015C0000000E780E0FC63060432370500F0484184
:1015D000B75504E99385552D3335B5024D817D15F9
:1015E000B70502F088C5C8454176130606CF718D50
:1015F00013657500C8C597100000E78000F92A84BC
:10160000214597100000E78000F9B735008003C539
:10161000C5C201C9937584001334150089ED1DE01E
:10162000C9AC9385C5C205462380C5009375840067
:1016300013341500EDD5214597100000E78040F5E3
:101640006309042A370500F00C41F9990CC10C41DB
:1016500093E525000CC1370501F00C4593E5150015
:101660000CC50C4593E525000CC50C4593E54500DC
:101670000CC50C4593E585000CC54C41F9994CC14E
:101680004C4193E525004CC14C41ED994CC14C4176
:1016900093E585004CC197100000E78000EF2A8495
:1016A000214597100000E78000EFB735008003C5A3
:1016B000F5C2630E052093758400133415006393FF
:1016C00005226308042202C302C102C502CB02CD77
:1016D00002CF02D1373500801305B5802AC41545E5
:1016E0002AC6372500801305C5732AC811452ACAA2
:1016F00037350080130555812ACC19452ACE02C7FB
:1017000002C9370501012AD3373500801305458406
:101710002AD5370500801305451B2AD7B735008029
:10172000938585932ED92ADB2800232EA1143735E3
:101730000080130585922ADD09452ADF82C12C111C
:10174000AEC5AAC7372500809305C566E80A3019DB
:1017500097100000E780209C370502F04C4193E58C
:1017600025004CC128192C001306000A9710000010
:10177000E78080E397100000E78020E12A8421457C
:1017800097100000E78020E137350080370900F02E
:10179000232225B9930445B8138544002C19130658
:1017A000000A97100000E78020E02382040A214508
:1017B00097100000E780C0DD0565130505809710D0
:1017C0000000E780A0DD1375840011C52145971046
:1017D0000000E780E0DB370501F07D58B7080040E6
:1017E000B70603F0B7C5EB0B93820520B7850080E1
:1017F000938715001384C600B7E5F505138305101C
:101800009305450058415041058B1DE713661600AE
:1018100050C158415041098B15C7759A90C1584124
:101820005041118B1DC76D9A90C158415041218B79
:1018300005CB5D9A90C105A8799A90C15841504155
:10184000098B61FF1366260050C158415041118B2E
:1018500079FB1366460050C158415041218B71FB02
:101860001366860050C11041635AC80A1841D04619
:10187000799AD0C603268900B3741701133716006E
:1018800085E459E333D6C2023337F6023D8393042D
:10189000170033569602D8C290C6D046136616007B
:1018A00010C0904A7DDEB9BF25E33356C3023337FB
:1018B000F6023D839304170033569602D8C290C6B1
:1018C000D0461366160010C0904A7DDE25BF938572
:1018D000F5C205462380C5009375840013341500B6
:1018E000E38105DE214597100000E78060CAE31C14
:1018F00004DC37350080130535A19305B00297004D
:101900000000E780600300003725008013050565AF
:10191000E54597000000E780200200003735008091
:1019200013050594AD4597000000E780E000000036
:10193000084101A0411106C697000000E780001988
:101940000000397106DE22DC26DA4AD803290500B8
:101950002E8593564900130710279305700263F2F2
:10196000E6029306300663CE260B25466344261115
:10197000FD15130691002E96930609032300D60049
:1019800029AA8145B716B7D113889675F97693823F
:10199000068FC1661383F6FF3787EB51130EF7519D
:1019A0009308C0F9938EE6FFB7360080938FB69404
:1019B00093039100B7E6F505138FF60F4A86B33708
:1019C000090313D9D700B3065902B29633F766005C
:1019D0003337C70315831314170033071703BA9659
:1019E0008606B3F6D6013307F4013384B30083448B
:1019F000070003071700FE968387160083C60600BC
:101A00002302E402A30194022303F402A302D402FA
:101A1000F115E365CFFA9385750293063006E3D698
:101A200026F541669306F6FFB376D9003787EB516A
:101A30001307F751B3B6E60295821307C0F933874F
:101A4000E6024A9706077916798EF915373700802E
:101A50001307B7943A960307160003460600930748
:101A60009100AE97A380E7002380C7003689254602
:101A7000E35026F113161900F915B7360080938646
:101A8000B6943696830616000346060013079100A7
:101A90002E97A300D7002300C70013069100B306BA
:101AA000B600130670023307B640B7350080938541
:101AB00045B5014697000000E78020024259D25404
:101AC0006254F25021618280411106C697100000D5
:101AD000E780C0A90000797106D622D426D24AD068
:101AE0004ECE52CC56CA5AC85EC662C466C26AC0DE
:101AF0002A840841BA893689328A2E8B937515005B
:101B0000B70A110099C1930AB00213764500B38455
:101B1000350109E6014B0C4495E5A1A88145630018
:101B20000A025286DA8603C7060085061377070C79
:101B3000130707F83337E0007D16BA956DF6AE94BB
:101B40000C4485C9032DC40063F5A403218935ED38
:101B5000834504020D4605456383C5002E859375B4
:101B6000350033059D40D5C505466397C50A014C30
:101B70004DA82285D6855A86D28697000000E78038
:101B80008017854C05C16685024D924C224CB24BA4
:101B9000424BD24A624AF249025992542254B250FC
:101BA000456182804C4C084CDC45CA854E86024D0E
:101BB000924C224CB24B424BD24A624AF2490259F1
:101BC00092542254B25045618287832B44001305FE
:101BD0000003034C040248C0854C23009403228573
:101BE000D6855A86D28697000000E780C01041FD56
:101BF000834504020D4605456383C5002E85937514
:101C0000350033059D40BDC90546639CC506814A24
:101C1000B5A82A8C014531A093051500058113DC78
:101C2000150093041500FD1481C8504C084C4C401D
:101C3000104A02966DD9ADA0832B44002285D6852B
:101C40005A86D28697000000E780E00A854C05FDA1
:101C50004C4C084CD445CA854E8682960DF5032916
:101C60008401404C814463029C08104885044A85E5
:101C7000DE8502966DD91385F4FF8DA8AA8A0145E9
:101C800031A093051500058193DA15009304150022
:101C9000FD1489C8504C084C4C40104A02966DD92E
:101CA000854CD5B54C4C032A4400084CD445CA8514
:101CB0004E868296854CE31805EC0329840183291E
:101CC000C4018144638D9A0003A6090185044A85F5
:101CD000D285029665D91385F4FFE36655EB814CF6
:101CE000232274012300840379BD6285B33C8501FE
:101CF00059BD411106C622C426C24AC03707110089
:101D00003689B2842A846389E500504C084C104A15
:101D10000296AA85054591ED81CC4C4C084CDC45DA
:101D2000A6854A86024992442244B24041018287F4
:101D30000145024992442244B2404101828001118E
:101D400006CE22CC26CA4AC84EC652C456C22A84DF
:101D500014490845B2892E899385F6FF054693B547
:101D600015006314C50081E51DA263890518544858
:101D70007D1593321500B30439018145C5C67D5EDA
:101D80009303000E1303000F37081C00B70811005F
:101D90004A851DA883470600050613FFF7034A0777
:101DA000337A07019397CF0013976E00B3E747018B
:101DB0005D8F3367E701630A170D3385A540FD1674
:101DC000B305C5003285A5C26301950C0307050064
:101DD00013061500E343EEFE630D960083471500DE
:101DE0001306250093FFF7031377F70FE36777FCDC
:101DF00039A0814F26861377F70FE36077FC630ADB
:101E0000960083470600050693FEF703E36767FA2B
:101E100029A0814E2686E36267FAE31D96F6014FFC
:101E20002686B5BF4A866302960603050600FD5660
:101E300063D7A60213B5150033C635011336160055
:101E4000518D19E963FF35033305B900030505001A
:101E5000130600FC6347C5024A8515E53DA09306BD
:101E600016001375F50F6383961203471600930649
:101E700026001376F7031A061307000E637EE5109B
:101E800055BF014519C12A89AE8963890206638459
:101E9000090481454E854A8683460600050693F669
:101EA000060C938606F8B336D0007D15B6956DF511
:101EB000484463F5A50481454E86CA8603C70600DB
:101EC00085061377070C130707F83337E0007D16F4
:101ED000BA956DF621A0484481450DC10346040220
:101EE0000D4781466303E600B28613F636000D8D7A
:101EF00005C685456315B602814A3DA04C4C084C89
:101F0000DC45CA854E86924A224AB2494249D244A9
:101F10006244F24005618287AA8A014531A0930597
:101F20001500058193DA150093041500FD1489C886
:101F3000504C084C4C40104A02966DD9054535A8C6
:101F40004C4C032A4400084CD445CA854E868296E0
:101F5000AA8505459DE103298401404C8144638B9A
:101F60009A00104885044A85D28502966DD913855A
:101F7000F4FF11A0568533355501924A224AB249E1
:101F80004249D2446244F240056182800146A686FD
:101F90001307000EE360E5EA638C960003C70600B2
:101FA00085061377F7039307000F6379F50059B59A
:101FB0000147A6869307000FE36EF5E6598E638707
:101FC000960083C6060093F6F60311A081464A05E3
:101FD00037071C00798D1A06518D558D3706110073
:101FE000E305C5EA81BD411106C633B7C5001347F5
:101FF0001700B3B7D50093C717007D8F630607108E
:1020000063E4C61013371600B3C7C50093B71700B3
:102010005D8F19EB637BB6003307C500030707002C
:10202000930700FC6343F700368693361600334768
:10203000B60013371700D98E85EA9386150013086A
:1020400000FC19A89307F6FF13B71700358E133657
:102050001600518F3E8611EBE376B6FEB307C5003E
:1020600083870700E3C007FFB287639DB70037355A
:102070000080130535A19305B00297000000E780AA
:10208000A08B00003306F500830606007D57634DE4
:10209000D706AA951307160013F5F60F6319B700B4
:1020A0000146AE861307000E637EE500B1A8034724
:1020B0001600930626001376F7031A061307000E80
:1020C0006364E5046395B6000147AE8631A003C79B
:1020D000060085061377F7039307000F6366F50282
:1020E000598E6394B600814529A083C5060093F5F7
:1020F000F5034A05B7061C00758D1A06518D4D8DE6
:10210000B7051100E305B5F697000000E780009CD5
:1021100000005D7186C6A2C4A6C2CAC04EDE52DCF3
:1021200056DA5AD85ED662D4328402C01306000250
:1021300032C20D462300C102044402C402C82ACCA4
:102140002ECEF9C45044032944004A8A6363C9006F
:10215000328A8329040063080A1083A6090003A6B3
:102160004900D845B6850297631D0510832B0401ED
:10217000138CC900C104894A37250080130B0593CD
:10218000528403A544FF2AC20385C4002300A10290
:1021900003A584FF2AC0D040884409CE8145630C42
:1021A00056010E055E954C4163846501814521A071
:1021B0000841084185452EC42AC603A6C4FF8840AD
:1021C00009CE8145630C56010E055E954C41638432
:1021D0006501814521A00841084185452EC82ACACC
:1021E00003A504FF0E055E95504108418A850296BD
:1021F00049E97D1435C8F24662458325CCFF0326A4
:102200000C00D446210C9384040282963DD995A8F3
:102210005048032944004A8A6363C900328A8329EB
:10222000040063020A04832A040183A6090003A6AA
:102230004900D845B685029729E50144D284338503
:102240008A00504108418A85029605EDFD1489CC2B
:102250006245F246338689000C465046D446210436
:10226000829671DD39A8014A637F2A016245F246F0
:1022700093153A003386B9000C425042D4468296F8
:1022800019C1054511A00145225CB25B425BD25ADF
:10229000625AF259064996442644B64061618280EA
:1022A000411106C697000000E780408200004111FE
:1022B00006C697000000E78060810000797122D691
:1022C00026D44AD24ED052CE56CC5ACA5EC862C626
:1022D00066C46AC26EC0138695FF33B7C5008146D7
:1022E00011E3B28663870520014637370080130764
:1022F00047B8B7370080138C27A511489308400FC3
:10230000930200081303000F93030003094EFD5EC0
:10231000130FF00B8D4F930AD00E130A000E130902
:10232000000AAD49930BF008130B00F7B7878080C4
:10233000138D0708854C31A093041600268663FA96
:10234000B41A3304C7008344040993978401E187D6
:1023500063CF070293073709F19B998FE38E77FDCF
:10236000B3078B408D8BE9FB637CD608B307C700AE
:1023700003A4070983A74709C18FB3F7A701639196
:102380000712930486002146E3E2D4FE9DA833841D
:10239000840103440400630304036303F405631A24
:1023A000C4179307160063FEB7143304F700034401
:1023B00004091374040C630B5412B9A2130416001D
:1023C0006371B4143A9403440409638F140363974C
:1023D00064049307040793F7F70F63E077062DA2D1
:1023E00013041600637FB4103A9403440409638E07
:1023F0005407639644099377040E638D270D29A231
:10240000B28463E2B40A1DBF93178401E18793A7E6
:10241000070013340409E18F8DE3FDA0BD0793F796
:10242000F70FB337FE0093148401E184B3A49E0038
:10243000C58F33348F00C18FE1EB9307260063F221
:10244000B70CBA9783C7070993F7070C6391570C2A
:102450009307360063F7B70A3304F700034404090F
:102460001374040C630454087DA093178401E1875E
:1024700093A707001334040AE18FA9EF71A0938496
:10248000F70193F4F40F931D840163E8990293D745
:102490008D4193A707001334040CE18F85EFADA0A5
:1024A000B284E3FDB4E83306970003060609E34768
:1024B00006E88504E39995FE2DA8F99BC907B33773
:1024C000F00093D48D41B3A49E00C58F33348F00A8
:1024D000C18F9DEB9307260063F5B7023304F70025
:1024E000034404091374040C631354029384170007
:1024F000B1B50146B7360080938646C154C10CC5BC
:1025000015A08145814C09A88545854C31A0894598
:1025100021A0854511A08D45A205B3E5950150C1C7
:102520000CC5054610C1824D124DA24C324CC24B17
:10253000524BE24A724A82591259A25432544561AE
:10254000828001A001A08280411106C69700000090
:10255000E780400311C597000000E7804002E5BF17
:102560000545B24041018280370500F00C4193E5FA
:1025700015000CC10F00300301A0730050108280C1
:10258000732540F1828073250030828073200530EE
:1025900082807330053082807320453082807325BD
:1025A0002034828011CAAA86038705002380E600B2
:1025B0007D16850685056DFA8280B306B54063F108
:1025C000C6029306F5FFFD153387C5000307070014
:1025D0009307F6FF36962300E6003E86F5F719A826
:1025E00011CAAA86038705002380E6007D168506AA
:1025F00085056DFA828019CA8346050003C7050068
:102600006398E6007D16850505057DF60145828007
:102610003385E640828097E2FFFF938262AF73903A
:062620005230828001A08F
:10263000C20B0080280D0080E20B0080280C008077
:10264000C60C0080140D0080720C00800000000099
:10265000617474656D707420746F20646976696448
:1026600065206279207A65726F282900DC0100807C
:102670000400000004000000E2020080DE0100808F
:10268000A802008064657374206973206F757420DC
:102690006F6620626F756E647363616C6C65642035
:1026A00060526573756C743A3A756E777261702812
:1026B0002960206F6E20616E206045727260207606
:1026C000616C7565DC010080000000000100000005
:1026D000C4010080DA01008018000000040000003E
:1026E000F60300801B5B4400E4260080020000002B
:1026F000E6260080010000001B5B4B00F8260080EE
:102700000300000043617061636974794572726F00
:1027100072000000042700800D000000696E7375D0
:102720006666696369656E7420636170616369746C
:10273000790000001C2700801500000068656C709F
:102740000D0A1B5B33316D57696E64536F636B20E9
:102750005368656C6C1B5B306D0D0A0D0A55534157
:1027600047453A0D0A09636F6D6D616E64205B61C8
:1027700072675D0D0A0D0A434F4D4D414E44533A69
:102780000D0A096F6E202020202020202053776919
:10279000746368206C6564206F6E0D0A096F66664D
:1027A00020202020202020537769746368206C65E6
:1027B00064206F66660D0A09737461747573202056
:1027C0002020476574206C65642073746174757390
:1027D0000D0A09636C6561722020202020436C651E
:1027E00061722073637265656E0D0A0968656C70AD
:1027F0002020202020205072696E74207468697334
:10280000206D6573736167650D0A0A636C6561729B
:102810000D0A6F66667374617475734F6E4F6666EA
:102820004C6564207374617475733A20542B008076
:1028300000000000202800800C000000542B0080C5
:1028400000000000102800800200000000000000CE
:102850002000000000000000020000000000000056
:102860000200000000000000030000000100000062
:102870002000000000000000020000000000000036
:102880000200000000000000030000000000000043
:102890002000000000000000020000000000000016
:1028A000020000000000000003000000756E737558
:1028B00070706F7274656420636F6D6D616E64001B
:1028C000542B008000000000AC28008013000000A2
:1028D00000000000200000000000000002000000D6
:1028E00000000000020000000000000003000000E3
:1028F00000000000200000000000000002000000B6
:1029000000000000020000000000000003000000C2
:10291000233E2057656C636F6D6520746F20576987
:102920006E64536F636B0000132900801300000076
:10293000542B0080000000001029008003000000DC
:1029400048656C6C6F2070616E6963303030313077
:10295000323033303430353036303730383039314A
:102960003031313132313331343135313631373143
:102970003831393230323132323233323432353228
:10298000363237323832393330333133323333330E
:1029900034333533363337333833393430343134F4
:1029A00032343334343435343634373438343935DA
:1029B00030353135323533353435353536353735D3
:1029C00038353936303631363236333634363536B8
:1029D000363637363836393730373137323733379E
:1029E0003437353736373737383739383038313884
:1029F000323833383438353836383738383839396A
:102A00003039313932393339343935393639373962
:102A100038393963616C6C656420604F7074696F1C
:102A20006E3A3A756E77726170282960206F6E2059
:102A30006120604E6F6E65602076616C7565000088
:102A4000542B008000000000502A0080020000008B
:102A50003A2001010101010101010101010101010E
:102A60000101010101010101010101010101010156
:102A70000101010101010101010101010101010146
:102A80000101010101010101010101010101010136
:102A90000101010101010101010101010101010126
:102AA0000101010101010101010101010101010116
:102AB0000101010101010101010101010101010106
:102AC00001010101010101010101010101010101F6
:102AD00001010000000000000000000000000000F4
:102AE00000000000000000000000000000000000E6
:102AF00000000000000000000000000000000000D6
:102B000000000000000000000000000000000000C5
:102B1000000000000202020202020202020202029D
:102B20000202020202020202020202020202020285
:102B30000202030303030303030303030303030367
:102B4000030304040404040000000000000000006B
:102B500000000000442500804425008000000000A3
:102B600044250080442500804425008000000000AA
:102B7000442500804425008044250080000000009A
:042B80004404008089
:102B84000000000000000000000000000000000041
:102B94000000000000000000000000000000000031
:102BA4000000000000000000000000000000000021
:102BB4000000000000000000000000000000000011
:102BC4000000000000000000000000000000000001
:102BD40000000000000000000000000000000000F1
:102BE40000000000000000000000000000000000E1
:102BF40000000000000000000000000000000000D1
:102C040000000000000000000000000000000000C0
:102C140000000000000000000000000000000000B0
:082C24000200000000000000A6
:040000058000000077
:00000001FF
