:0200000480007A
:10000000B7000080678080007350403073504034E8
:1000100081400141814101428142014381430144C8
:100020008144014581450146814601478147014898
:10003000814801498149014A814A014B814B014C68
:10004000814C014D814D014E814E014F814F9731C1
:1000500000009381A117732640F1B702000093823C
:10006000020063F4C2006F20003817810000130102
:1000700061F9B712000093820280B3025602330185
:100080005140330401006F004000411106C6972023
:100090000000E780C0272DC197200000E7800027DF
:1000A00037350080130545A7B7350080938505A730
:1000B00063F7A50023A005009105E3EDA5FE373504
:1000C0000080930505A7373500801305859C63756F
:1000D000B502130645006363B600B2851346F5FF0B
:1000E000B295910513F6C5FFB73500809385859CC1
:1000F00097200000E780602797200000E780002E0F
:1001000097100000E780E02500000000397106C06C
:1001100016C21AC41EC672C876CA7ACC7ECE2AD03F
:100120002ED232D436D63AD83EDA42DC46DE330519
:100130000100EF00A002824092422243B243424EAD
:10014000D24E624FF24F025592552256B256425746
:10015000D2576258F258216173002030411106C60F
:1001600022C42A8497200000E780C01F634A05004C
:1001700022852244B2404101172300006700C318C2
:10018000B7050080FD156D8DB145637EB500B735AF
:100190000080938585990A052E951C4189C72244C4
:1001A000B240410182872244B2404101172300003E
:1001B0006700A315144150412E85B6851723000012
:1001C0006700A393372500809306954209462E8544
:1001D000B685172300006700439282808280411118
:1001E0001305000802C663F4A500054649A813D507
:1001F000B50019ED13D5650093F5F503136505FCFE
:100200002306A10093E50508A306B1000946BDA099
:1002100013D505011DE513D5C50013D6650093F56B
:10022000F503136505FE2306A1001376F603136696
:100230000608A306C10093E505082307B1000D4693
:1002400035A813D5250113D6C50093D6650093F5BF
:10025000F503136505FF2306A1001376F603136665
:100260000608A306C10013F6F60313660608230763
:10027000C10093E50508A307B1001146AA856800EF
:100280002A96B70602F0D84241831377F70F65DF4D
:1002900093F5F50F05058CC26305C5008345050080
:1002A000DDB7014541018280797106D60841D04908
:1002B00094492AC632D236D0C8459045D4418C41A3
:1002C0002ACE32CC36CA2EC8372500809305C542C7
:1002D0006800100897200000E78060ACB2504561CC
:1002E000828005C23385C500370602F083C605004B
:1002F000584241831377F70F65DF850514C2E397F2
:10030000A5FE01458280797106D637250080130548
:1003100085522AC0370500801305451B2AC237269F
:1003200000801306865432C42AC6884DCC4D372629
:1003300000801306C67832C8094632CA02CC8A86C3
:1003400036D032D2100897200000E78040A5B25086
:1003500045618280517186D7A2D5A6D3CAD1CECFAE
:10036000D2CDD6CBDAC9DEC7E2C5E6C3EAC16EDFBD
:1003700097200000E78080FD2A8A21459720000011
:10038000E78080FD373500809305859C03C5050A0D
:100390000946814D6303C500AE8D6319C50213750F
:1003A0008A0011C5214597200000E78080FAFA5D98
:1003B0000E4D9E4C2E4CBE4B4E4BDE4A6E4AFE49B5
:1003C0000E599E542E54BE506D618280130B41070E
:1003D000370402F06D498549930BB005373500802D
:1003E000930A859C314CA14C254D3705008013059F
:1003F000451BAAC63725008013050551AAC4372519
:1004000000801305C542AAC837250080130545633F
:100410002ADC372500801305456D2ADA3725008050
:100420001305456E2AD8372500801305053F2ADEBF
:100430001D651305F5E62AD637250080130565628C
:100440002AD437656C70130585562AD2372500806B
:100450001305F5612AD037250080130595622ACE51
:10046000372500801305F5622AC43725008013055F
:1004700015632ACC37250080130585642ACA3725E1
:100480000080130505662AC841651308F5FF371576
:10049000008013058574AAC2372500801305C54F57
:1004A000AAC09D4893024004372500801305455596
:1004B0002AC6614393032004130E1004930E3004E4
:1004C000C2CA19A0A3803D0B08480D8975FD48409C
:1004D0006181E30605EC044093F5F40FE38425FF06
:1004E0006398750103C51D0A01C523803A0BE9BF56
:1004F00003C50A0A1DCDA3800D0A23800A0A63C220
:10050000B3046383C515E39175FC03A5CA0883A5ED
:100510008A0803C63D0AA98D13461600D18D63854E
:100520000530484041811375F50F65DD2320140126
:1005300061BF03C51D0A31CDA3800D0A23800A0ABD
:1005400061B76387D513E39155F803A5CA0815C9A8
:100550007D1523A6AA08484041811375F50F65DD76
:1005600023202401484041811375F50F65DD2320C8
:100570007401484041811375F50F65DD2320540057
:10058000A1B7484041811375F50F65DD23201401A3
:1005900025BF6346BC12638B95136393A53503C5D2
:1005A0002D0A59C903A6CA084545E373A650081188
:1005B000B28597200000E780C0AC0A55631F053064
:1005C000AA54638B047403AD8A009A5C636C9D002B
:1005D00003AC4A006685E285268697200000E78006
:1005E000E0DD15CD03AD0A01636C9D0003ACCA00CC
:1005F0006685E285268697200000E78020DC05C11D
:1006000003AD8A01636A9D7003AC4A016685E28589
:10061000268697200000E78060DA631F056E63FB83
:10062000A46B33059C00030505009305F0FB4148CE
:1006300063C5A56A6F00D04C484041811375F50F22
:1006400065DD2320140149B503A5CA0883A58A08DE
:1006500003C63D0AA98D13461600D18D638A052075
:10066000484041811375F50F65DD23201401A9BDB4
:1006700003A5CA0883A58A08637BB502050523A6DE
:10068000AA08484041811375F50F65DD2320240138
:10069000484041811375F50F65DD23207401484002
:1006A00041811375F50F65DD2320D40131BD48402C
:1006B00041811375F50F65DD2320140131B53545F2
:1006C000638FA51E1305F007639CA52083A5CA08A8
:1006D0006384051403A58A089386F5FF63F7A5389C
:1006E0004546E372C53A3306B5404145118DE3688E
:1006F000D53E13850D09AA95369597200000E78011
:1007000020C803A5CA0883A58A087D1523A6AA08C0
:100710001385F5FF23A4AA08484041811375F50FFE
:1007200065DD232024019302400448404181137574
:10073000F50F65DD2320740156489D4861439303FE
:100740002004130E1004930E3004484041811375A9
:10075000F50F65DD23205400484041811375F50FE6
:1007600065DD23202401484041811375F50F65DDC7
:1007700023207401484041811375F50F65DD130591
:10078000300708C0484041811375F50F65DD23200F
:100790002401484041811375F50F65DD2320740164
:1007A000484041811375F50F65DD1305B00408C09D
:1007B00003A5CA0803A68A08E363A630C145E3E996
:1007C000C52E6304C502B385CD00938505096E95DA
:1007D00013050509034605005440C18293F6F60F40
:1007E000E5DE050510C0E317B5FE484041811375ED
:1007F000F50F65DD23202401484041811375F50F75
:1008000065DD23207401484041811375F50F65DDD6
:100810001305500708C04DB9484041811375F50FC5
:1008200065DD232014014DB183A64A0883A5CA07BC
:1008300013B6160013B71500598E631C061003D6A5
:100840000A08FD1623A2DA08F1C203D72D0819A061
:10085000FD16CDCEB377060163FDB70E1146E389D1
:10086000E7FE338667025696710603566601CDB7DA
:1008700083A5CA0703A64A0893B615003347B600F6
:1008800013371700D98E639A061C83D60A081307FC
:10089000160023A2EA0871C603D72D0819A07D16F9
:1008A00069C2B3F7060163FAB71A9146E389E7FE16
:1008B000B3866702D696F10683D66601CDB703A646
:1008C0008A084545E376A61E0811B28597100000F8
:1008D000E780207B0A556306051C56489D4889A978
:1008E00013B50502138615F813361600518DE31D56
:1008F00005BC03A5CA0841466316C524484041818A
:100900001375F50F65DD232014017DBE6373B604F6
:10091000B3056602D6951386C50102D90C4202D7EB
:1009200002D502D39386F5FF02D104113D47636CD3
:10093000D7068146130746002E8683070700A69632
:100940002382F6008A56050785067D1636D175F690
:1009500099A8484041811375F50F65DD23201401E6
:10096000A5B663FCB60EB3856602D6951386C5019F
:1009700002D90C4202D702D502D39386F5FF02D1E9
:1009800004113D476361D7028146130746002E8656
:1009900083070700A6962382F6008A560507850678
:1009A0007D1636D175F64146B335B600E39F051086
:1009B0008A54A6CC9A552A56BA564A57AECEB2D0C9
:1009C000B6D2BAD43AC1B6DEB2DCAEDAA6D85AC5CF
:1009D00026C7AAD60DC9E8102AC916452ACB138501
:1009E0004A002ACF06452AD109452AD302D508094B
:1009F0002AD94EDB68091011C64597100000E78020
:100A0000003A614331E523A49A0823A69A08454594
:100A1000E3F1A40E13850A09DA85268697200000E3
:100A2000E780A09428012AC936452ACB13854A00BD
:100A30002ACF26452AD14ED302D508092AD94EDB22
:100A400068091011C64597100000E78040356143E2
:100A500056489D4893024004F9AC484041811375C3
:100A6000F50F65DD2320140185B423A6DA087D1572
:100A700023A4AA08484041811375F50F65DD2320A2
:100A80009401484041811375F50F65DD130500029F
:100A900008C0484041811375F50F65DD232094019E
:100AA00025B42A5D1A5F9D489302400493032004F5
:100AB000130E1004930E300463040D1C03D50A08B2
:100AC00003A7CA0783DC2D086374E51C52C22A8A77
:100AD0002AC0AA895648614329A0268AA68963F5B7
:100AE000E41E33056A02338BAA001305CB0133FCE5
:100AF0000901914463049C01835465010C41E39E08
:100B0000A5FD1105FA856A86FA8B3A8997200000BF
:100B1000E780C08A4A876D495E8F930E3004130EBA
:100B20001004930320046143930240049D485648F7
:100B30004DF50245631B85292A8C124A130B410788
:100B40000411CDAC03A68A086378C51448404181DE
:100B50001375F50F65DD0CC003A5CA0803A68A0846
:100B6000636FA674C14563E5C57493061500098ECD
:100B7000918D63E6D57613870D09B305A70033057C
:100B8000D70097100000E780A07F03A5CA08BD45E5
:100B900063EBA56E6E952308950803A5CA0883A587
:100BA0008A08050523A6AA081385150023A4AA0808
:100BB000484041811375F50F65DD23202401564817
:100BC0009D4893024004614393032004130E1004D4
:100BD000930E3004484041811375F50F65DD2320E5
:100BE0007401484041811375F50F65DD1305300729
:100BF00008C0484041811375F50F65DD23202401AD
:100C0000484041811375F50F65DD2320740148408C
:100C100041811375F50F65DD1305B00408C003A508
:100C2000CA0803A68A08636CA668C14563E2C56862
:100C30006304C502B385CD00938505096E95130540
:100C40000509034605005440C18293F6F60FE5DE20
:100C5000050510C0E317B5FE484041811375F50F37
:100C600065DD23202401484041811375F50F65DDC2
:100C700023207401484041811375F50F65DD49BE9D
:100C800023A20A0823A40A0823A60A08EA8631AE8A
:100C900056480411614355A241466376C55E6E9580
:100CA0002308950803A5CA0803A68A08050523A6F4
:100CB000AA081305160023A4AA0848404181137509
:100CC000F50F65DD0CC009B0124A130B41078549C9
:100CD0000411A5A2414863159D6233059D4002D9C8
:100CE00002D702D502D39305F5FF02D11C113D4670
:100CF0006361B6020146B3069C00AA85038706001D
:100D00003E962302E6000A5685060506FD1532D1F9
:100D1000F5F53335A80005C9484041811375F50F35
:100D200065DD9D4823201401314CA14C254D5648CA
:100D300093024004614393032004130E1004930EA6
:100D400030046FF06FF84A55AAD4BA552A569A560D
:100D50008A54AED2B2D0B6CEA6CC2AC103A5CA0858
:100D6000AEDEB2DCB6DA33069500A6D86369A654C7
:100D7000314CA14C254D636DC8526E951305050984
:100D8000DA85268697100000E780205E03A5CA0852
:100D9000269523A6AA0823A4AA085AC926CB08097F
:100DA0002AC536452AC713854A002ACF26452AD1A7
:100DB0004ED302D528012AD94EDB68091011C64549
:100DC00097100000E780A0FD09BE04116379EA4C8A
:100DD00003550B036378E54C33469C0183552B0385
:100DE00013361600B3066502D6962399B60201C6DD
:100DF0002391AD0809A863F6E54AB3856502D69547
:100E00002398A502668585456316B70023913D09A1
:100E10004E8519A893052B0302462390C500B30500
:100E20006602D69523983503124A130B4107239087
:100E30003A09AA8C8549636BEC0E02D902D702D518
:100E400002D31305FDFF02D1BD4563E0A502814534
:100E50006A857A8683060600A6952382D5008A5580
:100E6000050685057D152ED175F541453335A5015E
:100E700001C9930BB005314CA14C254D6FF0CFE467
:100E80004A552AC13A55AA551A568A56AADEAEDCE8
:100E9000B2DAB6D89145631CB70233F50C01637A18
:100EA000B53E330565025695831505032391BD08AC
:100EB0008A454CD5F6556656D65646570CD550D170
:100EC00014D158CD2328050283A5CA073DA0637617
:100ED000B7440A45B3056702D695C8D57655665618
:100EE000D656C65788D5D0D194D1DCCD23A80502DB
:100EF0009305170023AEBA06BA8C6395350123918A
:100F00009D091DA033F60C016375B63A03D50A0896
:100F10003306660256962319A602637DB53633055D
:100F2000650256952318950323909A0923A20A086F
:100F300023A40A0823A60A08630F0D048146930B15
:100F4000B005314CA14C1306000221A0850663F2C6
:100F5000A6053305DF008345050093F5F503E39708
:100F6000C5FE63FBA63183450500E391C5FE99C626
:100F7000830505001306F0FB6357B63C1386160085
:100F80006371A603030515009305F0FB63CFA5006D
:100F900079AEEA8619A8EA86930BB005314CA14CCC
:100FA00029A01305FDFF6314D5381945636FD51EBD
:100FB00013952600F2552E9508410285254D48408F
:100FC00041811375F50F65DD354508C056489D48CC
:100FD00093024004614393032004130E1004930E04
:100FE0003004484041811375F50F65DD75A0034558
:100FF0001F0083450F0022054D8DB2556317B51AAA
:1010000003A50D004C457D76F18D93E5F5054CC5A6
:1010100023823A0B254D484041811375F50F65DD5C
:10102000354508C056489D489302400461439303E8
:101030002004130E1004930E3004484041811375B0
:10104000F50F65DD91A80D467A85A2559710000031
:10105000E780C036631B051403A50D004C457D7663
:10106000F18D4CC523820A0A254D484041811375F4
:10107000F50F65DD354508C056489D48930240048C
:10108000614393032004130E1004930E3004484070
:1010900041811375F50F65DD294508C099AA0345FF
:1010A0001F0083450F0003463F0083462F002205A3
:1010B0004D8D93158600D58DC2054D8D92556316C5
:1010C000B50E3245254D56489D4893024004614374
:1010D00093032004130E1004930E3004834505007F
:1010E000504041821376F60F65DE050537260080F5
:1010F000130646551306B60C0CC0E311C5FED5A861
:1011000015467A85825597100000E780202B51ED17
:1011100023A60A0823A40A08254D484041811375D7
:10112000F50F65DD23202401484041811375F50F3B
:1011300065DD23207401484041811375F50F65DD9D
:101140001305800408C056489D489302400461433B
:1011500093032004130E1004930E30044840418181
:101160001375F50F65DD2320240148404181137577
:10117000F50F65DD23207401484041811375F50F9B
:1011800065DD1305200308C0484041811375F50F44
:1011900065DD1305A00408C0A9A819467A85F245A3
:1011A00097100000E78080213DCD6255AAD83645D2
:1011B000AADA13854A00AACC52552AD189452ED3E2
:1011C00042552AD52ED788182AD94EDBA8081011E7
:1011D000C64597100000E78080BC254D56489D48C5
:1011E00093024004614393032004130E1004930EF2
:1011F0003004484041811375F50F65DD1305300259
:1012000008C0484041811375F50F65DD1305E00303
:1012100008C0484041811375F50F65DD13050002D4
:1012200008C06FF06FAA03C54A0AE245254D11C1F7
:10123000A2451335150013652500AECCAACE625524
:10124000AAD83645AADAAC08AEDCAADE13854A0075
:101250002AC952452AD18D452ED342452AD52ED7AB
:1012600088182AD909452ADB08091011C6459710A4
:101270000000E780C0B29DB73685EA859710000070
:10128000E780E0CA0000C14597100000E78020CA4F
:101290000000914597100000E78060C9000052856A
:1012A00011A02E85BA8597100000E78040C8000085
:1012B000C145328597100000E78060C70000B28505
:1012C00097100000E780A0C6000037250080930536
:1012D000854E881897100000E78040C6000037252B
:1012E00000801305054CD54597100000E78040AA03
:1012F0000000C145268597100000E78040C300002C
:10130000372500801307054B6285EA850146A686CE
:1013100097100000E78060C3000037250080930528
:10132000854D081197100000E78040C10000372567
:1013300000801307054A7A85EA85EA86971000003F
:10134000E780A0C0000037250080130705497A8593
:10135000EA85014697100000E78020BF0000497130
:1013600023261116232481162322911623202117C8
:1013700097100000E78080FD2A8421459710000027
:10138000E78080FDB735008003C515A701C99375B7
:1013900084001334150089ED1DE0B5A6938515A7CB
:1013A00005462380C5009375840013341500EDD5E0
:1013B000214597100000E780C0F9630604349710B8
:1013C0000000E780A0F82A84214597100000E780FC
:1013D000A0F8B735008003C505A701C9937584003F
:1013E0001334150089ED1DE039AE938505A7054638
:1013F0002380C5009375840013341500EDD5214575
:1014000097100000E780E0F4630F042E370500F02A
:101410000C41F9990CC10C4193E525000CC137052D
:1014200001F00C4593E515000CC50C4593E525002E
:101430000CC50C4593E545000CC50C4593E58500AE
:101440000CC54C41F9994CC14C4193E525004CC168
:101450004C41ED994CC14C4193E585004CC197102E
:101460000000E780A0EE2A84214597100000E78065
:10147000A0EEB735008003C535A701C99375840078
:101480001334150089ED1DE0BDAC938535A70546E5
:101490002380C5009375840013341500EDD52145D4
:1014A00097100000E780E0EA630F04249710000023
:1014B000E780C0E92A84214597100000E780C0E951
:1014C000B735008003C525A7630D052093758400FB
:1014D000133415006392052263070422370900F0D4
:1014E00003254900B75504E99385552D3335B502D9
:1014F0004D817D15B70502F088C5C84541761306B4
:1015000006CF718D13657500C8C5C84113652500E8
:10151000C8C102C302C102C502CB02CD02CF02D1B3
:10152000372500801305F5612AC415452AC63725DD
:101530000080130505552AC811452ACA37250080A1
:10154000130595622ACC19452ACE02C702C9370570
:1015500001012AD337250080130545632AD53705B5
:1015600000801305451B2AD7B72500809385857217
:101570002ED92ADB2800232EA1143725008013053D
:1015800045742ADD09452ADF82C12C11AEC5AAC7E0
:10159000372500809305C542E80A301997000000FE
:1015A000E780E07F28192C001306000A971000003E
:1015B000E780A0DB97100000E78040D92A8421450E
:1015C00097100000E78040D9373500802324259DFF
:1015D0009304859C138544002C191306000A971068
:1015E0000000E78080D82382040A2145971000007C
:1015F000E78020D605651305058097100000E78079
:1016000000D61375840011C5214597100000E780AE
:1016100040D4370501F037080040370603F0B7C55E
:10162000EB0B93880520B78500801387150093077F
:10163000C600B7E5F505138405104C414441858982
:10164000F998C58D93C515004CC14C414441898919
:10165000F598C58D93C525004CC14C4144419189F5
:10166000ED98C58D93C545004CC14C414441A189BD
:10167000DD98C58D93C585004CC10C4163CA050A30
:101680000C414446F99844C683248900B3F6050109
:1016900093B5140085E6D9E1B3D59802B3B6E50257
:1016A000BD8293841600B3D5950254C20CC64C4635
:1016B00093E515008CC30C4AFDDD41B7A5E1B35598
:1016C0009402B3B6E502BD8293841600B3D59502A9
:1016D00054C20CC64C4693E515008CC30C4AFDDD84
:1016E000A9BF938525A705462380C500937584006F
:1016F00013341500E38205DE214597100000E780D2
:1017000040C5E31D04DC372500801305F5759305FE
:10171000B00297000000E780A06700003725008036
:1017200013050541E54597000000E780606600006D
:101730003725008013054575AD4597000000E7800B
:1017400020650000084101A0797106D622D4032F3C
:1017500005002E8593564F0013071027930570023E
:1017600063F2E6029306300663C8E60B2946635A25
:10177000CF0EFD15130611002E9693060F032300BE
:10178000D60019A28145B716B7D193889675F97618
:101790001383068F85669383B6471308C0F9B7266F
:1017A0000080938EC6799302110037E7F505130E7A
:1017B000F70F7A86B3371F0313DFD70033076F02A3
:1017C000329793160701C982B3867602C582939732
:1017D0001600B3860603BA96C606C1823387D701C0
:1017E000B387B200834F070003071700F696038400
:1017F000160083C606002382E702A381F703238332
:101800008702A382D702F115E365CEFA93857502AC
:1018100093063006E3DCE6F513160F014982856670
:101820009386B6473306D60245829306C0F9B306BF
:10183000D602FA96C606C182F9153727008013072B
:10184000C779BA960387160083C60600930711006E
:10185000AE97A380E7002380D700328F2946E34A62
:10186000CFF013161F00F915B72600809386C679AE
:1018700036968306160003460600130711002E97BE
:10188000A300D7002300C70013061100B306B6005B
:10189000130670023307B640B735008093858599EB
:1018A000014697000000E780E0012254B2504561F4
:1018B0008280411106C697100000E78040A7000013
:1018C000397106DE22DC26DA4AD84ED652D456D2F8
:1018D0005AD05ECE62CC66CA6AC86EC6AA8D08416E
:1018E000BA893689328AAE8B93751500B70A110012
:1018F00099C1930AB002137645003384350111E68D
:10190000814B83A58D009DE5A9A8814563000A024E
:101910005286DE8603C7060085061377070C130779
:1019200007F83337E0007D16BA956DF62E9483A53F
:101930008D0085C903ADCD006375A403218951E1F4
:1019400083C50D020D4605456383C5002E8593753D
:10195000350033058D40C5CD0546639DC50A814CD4
:101960007DA86E85D6855E86D28697000000E780CA
:101970000014054B0DC15A85B24D424DD24C624CFC
:10198000F24B025B925A225AB2594259D2546254D3
:10199000F2502161828083A5CD0103A58D01DC4534
:1019A000CA854E86B24D424DD24C624CF24B025B20
:1019B000925A225AB2594259D2546254F250216179
:1019C000828703AC4D001305000383CC0D0223A2D4
:1019D000AD00054B23806D036E85D6855E86D2866D
:1019E00097000000E780A00C59F503AA8D0183AA97
:1019F000CD0133058D40130415007D1449C403A6A1
:101A00000A01930500035285029665D9ADB7AA8CE9
:101A1000014531A093051500058193DC150003AC49
:101A20008D0103ADCD0103A44D0093041500FD14F9
:101A300089C803260D016285A28502966DD9054BE2
:101A40001DBF37051100054BE307A4F26E85D6854F
:101A50005E86D28697000000E780600509FD832638
:101A6000CD006285CA854E86829611F58144638ACF
:101A70009C0203260D0185046285A285029665D924
:101A80001385F4FF05A083A6CA005285CA854E8639
:101A90008296E31205EE014B23A28D0123809D0364
:101AA000D9BD6685333B9501F9B5411106C622C4FF
:101AB00026C24AC0370711003689B2842A84638956
:101AC000E500504C084C104A0296AA85054591ED58
:101AD00081CC4C4C084CDC45A6854A860249924490
:101AE0002244B24041018287014502499244224486
:101AF000B24041018280797106D622D426D24AD0E2
:101B00004ECE52CC56CA5AC85EC618491445B28940
:101B10002E899305F7FF054693B515006394C6001B
:101B200081E52DA26388051658499385F6FF93B881
:101B30001500B3053901014659CF1303000E930276
:101B4000000F370811004A840DA883C406008506DB
:101B500013FEF403F60713DFB7009394CE009397B8
:101B60006300B3E4E401C58FB3E7C701638E070DDB
:101B7000018E7D173696368425C36307B40C830720
:101B8000040093061400E3D507FE638DB60083447A
:101B900014009306240093FEF40393F7F70FE3E990
:101BA00067FC39A0814EAE8693F7F70FE3E267FC3E
:101BB000638AB60083C40600850693F3F403E3E961
:101BC00057FA29A08143AE86E3E457FAE39FB6F6BD
:101BD000014EAE8641B7CA866388B6060387060003
:101BE0006342070231C263763605B305C9008385B7
:101BF0000500930600FC63C5D504B2852E86CA8510
:101C0000A1C589A0938716001377F70F6386B710D5
:101C100083C416009387260093F6F4039A06930470
:101C2000000E637197107DBF81452E86CA8589CDD0
:101C300011A8CE85631636012E86CA8591C519A0D6
:101C4000814599C12E89B289638608044C450146B5
:101C500063800902CE864A8783470700050793F70A
:101C6000070C938707F8B337F000FD163E96EDF6A4
:101C70006372B602834605028D4701476383F6000F
:101C8000368793763700918D95C605466397C602D1
:101C9000814A0DA84C4D084DDC45CA854E86B24B95
:101CA000424BD24A624AF249025992542254B250EB
:101CB00045618287AE8A814531A0138615008581F2
:101CC000935A1600032B8501832BC5014041938451
:101CD0001500FD1489C803A60B015A85A28502963A
:101CE0006DD9054AB9A837051100054A630BA4044C
:101CF00083A6CB005A85CA854E86829639E18144F7
:101D0000638E9A0203A60B0185045A85A28502966A
:101D100065D91385F4FF25A08146AE879304000E94
:101D2000E36297EC638BB70283C40700850793F4E3
:101D3000F4031304000F637887026DB55685333AB8
:101D400055015285B24B424BD24A624AF24902597E
:101D500092542254B250456182808144AE8713046C
:101D6000000FE36187E8C58E6387B70083C507006E
:101D700093F5F50311A0814576072D839A06D98E38
:101D8000D58DB7061100E381D5ECA9BD411106C67A
:101D900097000000E78020B200005D7186C6A2C4F3
:101DA000A6C2CAC04EDE52DC56DA5AD8B28902C484
:101DB0001306000232C60D462304C10203A68900A1
:101DC00002C802CC2AD02ED271C203A5C900630575
:101DD000051083A50900131A550013050AFE158185
:101DE000130915001384450093040601854A37152D
:101DF0000080130B4574104009CA92560255832582
:101E0000C4FFD44682966315051003A544FF2AC675
:101E10000385C4002304A10283A584FF03A509014F
:101E20002EC4D4408C4489CE0146639C56018E0555
:101E3000AA95D04163046601014621A08C418C41E2
:101E4000054632C82ECA83A6C4FF8C4089CE0146FF
:101E5000639C56018E05AA95D04163046601014634
:101E600021A08C418C41054632CC2ECE83A504FFA7
:101E70008E052E95504108412C00029651E921040F
:101E8000011A93840402E3180AF681A803A5490104
:101E900029CD83A5090103A609000E0561150D8151
:101EA0001309150013044600938445004A8A104024
:101EB00001CA925602558325C4FFD446829629E969
:101EC000904003A5C4FF2C00029639E17D1A21043D
:101ED000A104E31E0AFC11A0014903A54900636B9C
:101EE000A9000146636FA90035A0014903A5490077
:101EF000E379A9FE83A50900131639002E96637BAA
:101F0000A900925602550C425042D446829619C1FD
:101F1000054511A00145425BD25A625AF259064961
:101F200096442644B64061618280411106C69700FE
:101F30000000E78040980000411106C697000000AD
:101F4000E78060970000411106C61307101063EC8C
:101F5000E50293070010130800FC3307F5000307A0
:101F6000070063550701FD17EDFB31A863FDF50080
:101F700037360080130786980146BE86970000001A
:101F8000E780A0FC000033B7C500B3B7D5005D8F74
:101F900019E363F7C60097000000E780C0910000D6
:101FA00009E60147368699EE35A8637BB60033070C
:101FB000C50003070700930700FCE354F7FE19A0D0
:101FC000E381C5FE930600FC328729A06382E50207
:101FD0007D1701CFE37CB7FE3306E500030606005C
:101FE000E348D6FE6306B70039A80147631DB70072
:101FF000372500801305F5759305B00297000000A2
:10200000E78000D900003306E50083060600E3D42C
:1020100006F8AA951307160013F5F60F6315B70017
:102020000146AE8601A803471600930626001376E4
:10203000F7031A061307000EE36FE5F46395B60085
:102040000147AE8631A003C7060085061377F70364
:102050009307000FE361F5F4598E6394B600814550
:1020600029A083C5060093F5F50376052D811A0690
:10207000518D4D8DB7051100E31FB5F095BF7971F6
:1020800022D626D44AD24ED052CE56CC5ACA5EC898
:1020900062C666C46AC2138695FF814663E3C500C3
:1020A000B286638A05200146373700801307879C74
:1020B000B7370080138C778811489308000F93027C
:1020C0000003130300089303400F7D5E930EF00896
:1020D0000D4F930F000E1309000A930AD00E314AD8
:1020E0009309F00B094B930B00F7B7878080938C13
:1020F000070831A093041600268663FEB41A330441
:10210000C7008347040993948701E18463C40404EE
:1021100093073709F19B998F938707F7E38CC7FDE6
:10212000B3878B408D8BF9F7B2846372D602B30705
:10213000C70003A4070983A74709C18FB3F7970115
:1021400063910712930486002146E3E2D4FE63ED17
:10215000B4105DB7338487010344040063030403B0
:102160006306E405631464179307160063FDB71450
:102170003304F700034404091374040C630A641263
:10218000B1A2130416006370B4143A940344040912
:10219000638317056398770493178401E187B32756
:1021A000FE0033B48E00C18FB1CF0DA21304160010
:1021B000637BB4103A9403440409638EF707639178
:1021C000570993178401E18793A707001334040A82
:1021D000E18FF9E3E5A89307040793F7F70F63E3AB
:1021E0005702EDA09387F40093F7F70F93B73700EA
:1021F00093148401E18493A40400E58F1334040C48
:10220000E18FE9C79307260063FFB70ABA9783C730
:10221000070993F7070C8544639F670C9307360003
:1022200063F3B70A3304F700034404091374040C7E
:1022300063006408D9A09377040E638F270579A003
:102240009387F40193F7F70F131D840163F8470395
:1022500093578D41B327FE0033B48900C18F8DCFD2
:10226000B5A0B284E3FAB4E8330697000306060982
:10227000E34406E88504E39995FE35A893F7E4FF67
:10228000C90793B7170093548D4193A40400E58FB9
:102290001334040CE18F9DCB9307260063F5B7023E
:1022A0003304F700034404091374040C6319640431
:1022B0009384170091B50146B7360080938686A5B2
:1022C00054C10CC519A88145814419A08545854490
:1022D000A205C58D50C10CC5054610C1124DA24CBA
:1022E000324CC24B524BE24A724A82591259A254A2
:1022F0003254456182808945E1BF8D45D1BF854417
:102300008945F9B701A001A08280411106C6970056
:102310000000E780400311C597000000E7804002FD
:10232000E5BF0545B24041018280370500F00C4110
:1023300093E515000CC10F00300301A0730050108D
:102340008280732540F18280732500308280732063
:102350000530828073300530828073204530828062
:1023600073252034828011CAAA8603870500238042
:10237000E6007D16850685056DFA8280B306B540B8
:1023800063F1C6029306F5FFFD153387C500030709
:1023900007009307F6FF36962300E6003E86F5F722
:1023A00019A811CAAA86038705002380E6007D16B6
:1023B000850685056DFA828019CA8346050003C724
:1023C00005006398E6007D16850505057DF6014547
:1023D00082803385E640828097E2FFFF938242D37A
:0823E00073905230828001A0CD
:1023F000BC0F0080AA110080EE0F00804610008004
:102400009E100080001100809A11008000000000E2
:10241000617474656D707420746F2064697669648A
:1024200065206279207A65726F282900DC010080BE
:102430000400000004000000E2020080DE010080D1
:10244000A80200802F72757374632F353965656437
:1024500038613261616330323330613862353365FF
:102460003839643465393964353539313262613629
:102470006233352F6C6962726172792F636F726596
:102480002F7372632F7374722F6D6F642E727300CB
:10249000442400804B000000F805000010000000FC
:1024A000442400804B000000F805000020000000DC
:1024B000442400804B000000400200000D0000009A
:1024C00064657374206973206F7574206F66206271
:1024D0006F756E6473000000DA0100801800000060
:1024E0000400000006030080DC0100800000000002
:1024F00001000000C40100801B5B4400F824008040
:1025000002000000FA240080010000001B5B4B0069
:102510000C250080030000004361706163697479D9
:102520004572726F72000000182500800D000000D7
:10253000696E73756666696369656E742063617040
:102540006163697479000000302500801500000087
:1025500068656C700D0A1B5B33316D57696E64538F
:102560006F636B205368656C6C1B5B306D0D0A0DDF
:102570000A55534147453A0D0A09636F6D6D616E07
:1025800064205B6172675D0D0A0D0A434F4D4D413A
:102590004E44533A0D0A096F6E202020202020203F
:1025A00020537769746368206C6564206F6E0D0A30
:1025B000096F6666202020202020205377697463ED
:1025C00068206C6564206F66660D0A097374617417
:1025D000757320202020476574206C656420737417
:1025E000617475730D0A09636C6561722020202087
:1025F00020436C6561722073637265656E0D0A0914
:1026000068656C702020202020205072696E742034
:1026100074686973206D6573736167650D0A0A6379
:102620006C6561720D0A6F66667374617475734FC1
:102630006E4F666624260080020000004C65642010
:102640007374617475733A2098290080000000004B
:102650003C2600800C00000098290080000000004B
:102660000000000020000000000000000200000048
:102670000000000002000000000000000300000055
:102680000100000020000000000000000200000027
:102690000000000002000000000000000300000035
:1026A0000000000020000000000000000200000008
:1026B0000000000002000000000000000300000015
:1026C000756E737570706F7274656420636F6D6D75
:1026D000616E64009829008000000000C026008020
:1026E00013000000000000002000000000000000B7
:1026F00002000000000000000200000000000000D6
:1027000003000000000000002000000000000000A6
:1027100002000000000000000200000000000000B5
:1027200003000000233E2000242700800300000057
:1027300057656C636F6D6520746F2057696E6453C5
:102740006F636B0030270080130000009829008021
:102750000000000048656C6C6F2070616E696363F7
:10276000616C6C656420604F7074696F6E3A3A7585
:102770006E77726170282960206F6E206120604E34
:102780006F6E65602076616C75653A2098290080CF
:10279000000000008A270080020000003030303145
:1027A00030323033303430353036303730383039FD
:1027B00031303131313231333134313531363137F5
:1027C00031383139323032313232323332343235DB
:1027D00032363237323832393330333133323333C1
:1027E00033343335333633373338333934303431A7
:1027F000343234333434343534363437343834398D
:102800003530353135323533353435353536353784
:10281000353835393630363136323633363436356A
:102820003636363736383639373037313732373350
:102830003734373537363737373837393830383136
:10284000383238333834383538363837383838391C
:102850003930393139323933393439353936393714
:10286000393839396C6962726172792F636F7265B8
:102870002F7372632F7374722F76616C6964617445
:10288000696F6E732E727301010101010101010173
:102890000101010101010101010101010101010128
:1028A0000101010101010101010101010101010118
:1028B0000101010101010101010101010101010108
:1028C00001010101010101010101010101010101F8
:1028D00001010101010101010101010101010101E8
:1028E00001010101010101010101010101010101D8
:1028F00001010101010101010101010101010101C8
:1029000001010101010101000000000000000000C0
:1029100000000000000000000000000000000000B7
:1029200000000000000000000000000000000000A7
:102930000000000000000000000000000000000097
:102940000000000000000000000202020202020279
:102950000202020202020202020202020202020257
:10296000020202020202020303030303030303033E
:10297000030303030303030404040404000000002E
:102980000000000000000000642800802300000018
:1029900011010000110000000623008006230080C2
:1029A000000000000623008006230080062300802C
:1029B000000000000623008006230080062300801C
:0829C000000000005403008038
:1029C80000000000000000000000000000000000FF
:1029D80000000000000000000000000000000000EF
:1029E80000000000000000000000000000000000DF
:1029F80000000000000000000000000000000000CF
:102A080000000000000000000000000000000000BE
:102A180000000000000000000000000000000000AE
:102A2800000000000000000000000000000000009E
:102A3800000000000000000000000000000000008E
:102A4800000000000000000000000000000000007E
:102A5800000000000000000000000000000000006E
:082A6800020000000000000064
:040000058000000077
:00000001FF
