:0200000480007A
:10000000B7000080678080007350403073504034E8
:1000100081400141814101428142014381430144C8
:100020008144014581450146814601478147014898
:10003000814801498149014A814A014B814B014C68
:10004000814C014D814D014E814E014F814F9711E1
:10005000000093812116732640F1B70200009382BD
:10006000020063F4C2006F007008178100001301E2
:1000700061F9B712000093820280B3025602330185
:100080005140330401006F004000411106C6970043
:100090000000E780407F21C997000000E780807E54
:1000A000371500801305459BB71500809385059B88
:1000B00063F7A50023A005009105E3EDA5FE371524
:1000C00000801305059BB71500809385059B63FC95
:1000D000A500371600801306069B144294C19105B3
:1000E0001106E3ECA5FE97000000E780807F9700F3
:1000F0000000E78020270000397106C016C21AC42C
:100100001EC672C876CA7ACC7ECE2AD02ED232D4FF
:1001100036D63AD83EDA42DC46DE33050100EF003F
:10012000A002824092422243B243424ED24E624FDC
:10013000F24F025592552256B2564257D257625844
:10014000F258216173002030411106C622C42A846E
:1001500097000000E7808078FD5563DAA5002285CE
:100160002244B24041011703000067006371B705E4
:100170000080FD156D8DB145637EB500B71500801B
:10018000938505980A052E951C4189C72244B240E3
:10019000410182872244B2404101170300006700F9
:1001A000436E828041111305000802C663F6A50064
:1001B0002306B100054649A813D5B50019ED13D59E
:1001C000650093F5F503136505FC2306A10093E58F
:1001D0000508A306B1000946BDA013D505011DE51C
:1001E00013D5C50013D6650093F5F503136505FE19
:1001F0002306A1001376F60313660608A306C100C2
:1002000093E505082307B1000D4635A813D5250150
:1002100013D6C50093D6650093F5F503136505FF66
:100220002306A1001376F60313660608A306C10091
:1002300013F6F603136606082307C10093E50508C5
:10024000A307B1001146AA8568002A96B70602F0F6
:10025000D84241831377F70F65DF93F5F50F050556
:100260008CC26305C50083450500DDB7014541012A
:100270008280797106D60841D04994492AC632D283
:1002800036D0C8459045D4418C412ACE32CC36CAAE
:100290002EC868000C0897000000E780A041B2500B
:1002A0004561828005C23385C500370602F083C6EA
:1002B0000500584241831377F70F65DF850514C2A7
:1002C000E397A5FE01458280370500F00C41F999BE
:1002D0000CC14841B75504E99385552D3335B50216
:1002E0004D819305F5FF370502F00CC54C4541766D
:1002F000130606CFF18D93E575004CC50C498D8929
:10030000B1E54841618131C1B70502F08841D04172
:1003100041821376F60F01C61376F50F90C1B7052B
:1003200000F0D04593561500BD8A7D77798E558EA5
:10033000D0C5D045B70601F0FD16758E3E05B7064F
:100340007000758D518DB10588C182803715008090
:100350001305F594B14597000000E780E0330000F5
:10036000397106DE22DC26DA4AD897000000E780E1
:1003700060552A84214597000000E78060553715B5
:1003800000808345159B854491C51375840011E950
:1003900085C0E5A481448545A308B59A13758400FA
:1003A00065D9214597000000E78020526397042C0F
:1003B00097000000E78000512A8421459700000043
:1003C000E7800051371500808345059B854491C522
:1003D0001375840011E985C04DA481448545230827
:1003E000B59A1375840065D9214597000000E78010
:1003F000C04D63940428370500F00C41F9990CC1F5
:1004000097000000E780004C2A84214597000000F7
:10041000E780004C371500808345259B854491C5B6
:100420001375840011E985C089AC81448545230991
:10043000B59A1375840065D9214597000000E780BF
:10044000C048639C0422370500F04841B75504E9D1
:100450009385552D3335B5024D817D15B70502F0D5
:1004600088C5C8454176130606CF718D13657500A2
:10047000C8C597000000E780E0442A842145970022
:100480000000E780E044371500808345359B8544B4
:100490006386051C13758400631A051C639F041C86
:1004A000370401F008441365150008C408441365B7
:1004B000250008C408441365450008C408441365B2
:1004C000850008C44840799948C048401365250014
:1004D00048C048406D9948C048401365850048C0F1
:1004E000370900F003250900136525002320A90022
:1004F00028102AC6371500801305C5962AC8054559
:100500002ACA02CC37150080130505982AD002D2DA
:1005100068000C0897000000E780C019370502F05A
:100520004C4193E525004CC1214597000000E78030
:10053000C03905651305058097000000E780A039E4
:100540001305440037080040370603F0B7A5E11152
:1005500093880530B7850080138715009307C60080
:1005600044404C40858895E893E515000CC1444013
:100570004C4089888DC8F5994CC044404C409188C6
:1005800095C8ED994CC044404C40A1889DC8DD9968
:100590004CC00C4063DD050245A8F9994CC04440AD
:1005A0004C408988E9F893E525000CC144404C4053
:1005B0009188E1F893E545000CC144404C40A18886
:1005C000F9F493E585000CC10C4063CF05060C409F
:1005D000B3F5050185C94C46F9994CC683258900B8
:1005E000B1C9B3D5B802B3B4E502BD809386140097
:1005F000B3D5D50244C20CC64C4693E515008CC356
:100600000C4AFDDD4C46F9994CC6832589009DC1F5
:10061000B3D5B802B3B6E502BD8293841600B3D554
:10062000950254C20CC64C4693E515008CC30C4A87
:10063000FDDD3DB7371500801305058FE5459700B3
:100640000000E7806005000037150080130545971E
:10065000AD4597000000E7802004000081448545F7
:10066000A309B59A13758400E30A05E221459700B2
:100670000000E7808025E38504E23715008013053C
:1006800045929305B00297000000E780E00000006B
:10069000084101A0411106C697000000E780A000B4
:1006A0000000411106C697000000E780C01F00004F
:1006B0005D7186C6A2C4A6C2CAC04EDE52DC56DA3E
:1006C0005AD85ED662D466D202C01306000232C285
:1006D0000D462300C10202C402C890452ACC37153A
:1006E00000801305C5902ACE7DC2C84583A9450068
:1006F00003A905004E8A63E3A9002A8A63020A144B
:10070000832649008DC203250900AA96370702F007
:10071000834705004443C18093F4F40FE5DC0505ED
:100720001CC3E317D5FE03AC0501930CC9001304E9
:1007300006018A8A094B37050080930B0569D2842C
:10074000032544FF2AC20305C4002300A102032598
:1007500084FF2AC05040084419CA8145630C6601D1
:100760000E0562954C416396750108410841854527
:1007700011A081452EC42AC60326C4FF084019CA09
:100780008145630C66010E0562954C4163967501C7
:1007900008410841854511A081452EC82ACA032574
:1007A00004FF0E05629550410841D68502965DE52D
:1007B000FD14C1C8F246624583A5CCFF03A60C0018
:1007C000D446A10C1304040282963DD941A888495D
:1007D000D04983A9450003A905004E8A63E3C900F7
:1007E000328A630F0A04032649000DC283250900DB
:1007F0002E96B70602F003C70500DC42C18393F7CB
:10080000F70FE5DF850598C2E397C5FE130BC90016
:10081000930445008A8A5284904003A5C4FFD6857C
:1008200002960DED7D1411CCF24662458325CBFF77
:1008300003260B00D446210BA104829671DD39A852
:10084000014A637F3A016245F24693153A00330646
:10085000B9000C425042D446829619C1054511A0F8
:100860000145925C225CB25B425BD25A625AF259F9
:10087000064996442644B6406161828001A001A0E9
:100880008280411106C697000000E780400311C531
:1008900097000000E7804002E5BF0545B2404101F6
:1008A0008280370500F00C4193E515000CC10F0064
:1008B000300301A0730050108280732540F18280C4
:1008C00073250030828073200530828073300530BC
:1008D0008280732045308280732520348280970285
:0E08E00000009382A28173905230828001A0AA
:1008F000617474656D707420746F206469766964C6
:1009000065206279207A65726F000000A201008084
:100910000400000004000000A4020080A401008084
:100920007202008063616C6C656420604F70746952
:100930006F6E3A3A756E77726170282960206F6E1B
:10094000206120604E6F6E65602076616C75655326
:10095000657269616C206661756C7457696E645369
:100960006F636B20302E310D0A0000005B090080A0
:100970000E00000048656C6C6F2070616E6963004A
:100980007E0800807E080080000000007E08008055
:100990007E0800807E080080000000007E08008045
:1009A0007E0800807E08008000000000C8020080F1
:040000058000000077
:00000001FF
