:0200000480007A
:10000000B7000080678080007350403073504034E8
:1000100081400141814101428142014381430144C8
:100020008144014581450146814601478147014898
:10003000814801498149014A814A014B814B014C68
:10004000814C014D814D014E814E014F814F9711E1
:1000500000009381210A732640F1B70200009382C9
:10006000020063F4C2006F00E07B178100001301FF
:1000700061F9B712000093820280B3025602330185
:100080005140330401006F004000411106C6970043
:100090000000E780007321C997000000E7804072EC
:1000A000371500801305458FB71500809385058FA0
:1000B00063F7A50023A005009105E3EDA5FE371524
:1000C00000801305058FB71500809385058F63FCAD
:1000D000A500371600801306068F144294C19105BF
:1000E0001106E3ECA5FE97000000E780007397007F
:1000F0000000E78000240000397106C016C21AC44F
:100100001EC672C876CA7ACC7ECE2AD02ED232D4FF
:1001100036D63AD83EDA42DC46DE33050100EF003F
:10012000A002824092422243B243424ED24E624FDC
:10013000F24F025592552256B2564257D257625844
:10014000F258216173002030411106C622C42A846E
:1001500097000000E780006CFD5563DAA50022855A
:100160002244B24041011703000067002365B70530
:100170000080FD156D8DB145637EB500B71500801B
:100180009385058C0A052E951C4189C72244B240EF
:10019000410182872244B2404101170300006700F9
:1001A0000362828041111305000802C663F6A500B0
:1001B0002306B100054649A813D5B50019ED13D59E
:1001C000650093F5F503136505FC2306A10093E58F
:1001D0000508A306B1000946BDA013D505011DE51C
:1001E00013D5C50013D6650093F5F503136505FE19
:1001F0002306A1001376F60313660608A306C100C2
:1002000093E505082307B1000D4635A813D5250150
:1002100013D6C50093D6650093F5F503136505FF66
:100220002306A1001376F60313660608A306C10091
:1002300013F6F603136606082307C10093E50508C5
:10024000A307B1001146AA8568002A96B70602F0F6
:10025000D84241831377F70F65DF93F5F50F050556
:100260008CC26305C50083450500DDB7014541012A
:100270008280797106D60841D04994492AC632D283
:1002800036D0C8459045D4418C412ACE32CC36CAAE
:100290002EC868000C0897000000E7806035B25057
:1002A0004561828005C23385C500370602F083C6EA
:1002B0000500584241831377F70F65DF850514C2A7
:1002C000E397A5FE01458280370500F04841B75508
:1002D00004E99385552D3335B5024D819305F5FF1E
:1002E000370502F00CC54C454176130606CFF18D5B
:1002F00093E575004CC50C498D8985E148416181C4
:1003000001CD370502F00C41504141821376F60FC2
:1003100001C693F5F50F0CC18280371500801305D7
:10032000F588B14597000000E780C02A0000797188
:1003300006D622D426D297000000E780204C2A84DB
:10034000214597000000E780204C37150080834549
:10035000158F854491C51375840011E985C0A1AC42
:1003600081448545A308B58E1375840065D9214560
:1003700097000000E780E048639F04229700000098
:10038000E780C0472A84214597000000E780C047E6
:10039000371500808345258F854491C513758400EA
:1003A00011E985C009AC814485452309B58E1375D3
:1003B000840065D9214597000000E7808044639C54
:1003C000041E370500F04841B75504E99385552DC3
:1003D0003335B5024D817D15B70502F088C5C84596
:1003E0004176130606CF718D13657500C8C5970059
:1003F0000000E780A0402A84214597000000E780A4
:10040000A040371500808345358F854463860518E5
:1004100013758400631A0518639F041808102AC214
:10042000371500801305C58A2AC405452AC602C8A7
:10043000371500801305058C2ACC02CE48002C000D
:1004400097000000E780C01A370401F008441365E4
:10045000150008C408441365250008C40844136542
:10046000450008C408441365850008C4370502F038
:100470004C4193E525004CC1214597000000E780E1
:10048000403805651305058097000000E780203897
:100490004840799948C048401365250048C0484005
:1004A0006D9948C0484093658500130544000CC110
:1004B000B70503F0370800F0B7F6FA02938806088C
:1004C0003787008005079387C50050404440058A60
:1004D0000DEE13E6140010C150404440098A0DCEC1
:1004E00013F6D4FF50C050404440118A0DCE13F68D
:1004F000B4FF50C050404440218A0DCE13F674FF23
:1005000050C01040635E0602A5A013F6E4FF50C081
:1005100050404440098A69F613E6240010C1504057
:100520004440118A69F613E6440010C1504044402B
:10053000218A69F613E6840010C11040634A06025E
:10054000D045799AD0C5832488008DCC33D69802C3
:10055000B334E602BD80938614003356D602C4C17C
:1005600090C5D0451366160090C390497DDEB1BF9B
:10057000371500801305458BAD4597000000E780D7
:10058000600500003715008013050583E5459700D9
:100590000000E7802004000081448545A309B58E52
:1005A00013758400E30A05E6214597000000E78003
:1005B0004025E38504E6371500801305458693053D
:1005C000B00297000000E780E0000000084101A0B1
:1005D000411106C697000000E780A000000041110D
:1005E00006C697000000E780C01F00005D7186C648
:1005F000A2C4A6C2CAC04EDE52DC56DA5AD85ED6B3
:1006000062D466D202C01306000232C20D46230035
:10061000C10202C402C890452ACC371500801305D8
:10062000C5842ACE7DC2C84583A9450003A905001B
:100630004E8A63E3A9002A8A63020A1483264900CA
:100640008DC203250900AA96370702F083470500EB
:100650004443C18093F4F40FE5DC05051CC3E317A4
:10066000D5FE03AC0501930CC900130406018A8A68
:10067000094B37050080930BC55CD284032544FFEA
:100680002AC20305C4002300A102032584FF2AC057
:100690005040084419CA8145630C66010E056295F5
:1006A0004C416396750108410841854511A081457B
:1006B0002EC42AC60326C4FF084019CA8145630C0C
:1006C00066010E0562954C4163967501084108412B
:1006D000854511A081452EC82ACA032504FF0E05B1
:1006E000629550410841D68502965DE5FD14C1C86A
:1006F000F246624583A5CCFF03A60C00D446A10CAC
:100700001304040282963DD941A88849D04983A99F
:10071000450003A905004E8A63E3C900328A630FCE
:100720000A04032649000DC2832509002E96B70648
:1007300002F003C70500DC42C18393F7F70FE5DF42
:10074000850598C2E397C5FE130BC90093044500C5
:100750008A8A5284904003A5C4FFD68502960DED87
:100760007D1411CCF24662458325CBFF03260B0096
:10077000D446210BA104829671DD39A8014A637F1A
:100780003A016245F24693153A003306B9000C422D
:100790005042D446829619C1054511A00145925C8C
:1007A000225CB25B425BD25A625AF25906499644C5
:1007B0002644B6406161828001A001A0828041117F
:1007C00006C697000000E780000311C597000000EF
:1007D000E7800002E5BF0545B24041018280370550
:1007E00000F0232005000F00300301A0730050101B
:1007F0008280732540F182807325003082807320CF
:1008000005308280733005308280732045308280CD
:10081000732520348280970200009382228E739089
:060820005230828001A0AD
:10083000617474656D707420746F20646976696486
:1008400065206279207A65726F000000A201008045
:100850000400000004000000A4020080A401008045
:100860007202008063616C6C656420604F70746913
:100870006F6E3A3A756E77726170282960206F6EDC
:10088000206120604E6F6E65602076616C756553E7
:10089000657269616C206661756C7457696E64532A
:1008A0006F636B20302E310D0A0000009B08008022
:1008B0000E00000048656C6C6F2070616E6963000B
:1008C000BA070080BA07008000000000BA07008065
:1008D000BA070080BA07008000000000BA07008055
:1008E000BA070080BA07008000000000C80200803C
:040000058000000077
:00000001FF
