:0200000480007A
:10000000B7000080678080007350403073504034E8
:1000100081400141814101428142014381430144C8
:100020008144014581450146814601478147014898
:10003000814801498149014A814A014B814B014C68
:10004000814C014D814D014E814E014F814F9711E1
:10005000000093816164732640F1B702000093822F
:10006000020063F4C2006F007047178100001301A3
:1000700061F9B712000093820280B3025602330185
:100080005140330401006F004000411106C6971033
:100090000000E78080BE21C997100000E780C0BD46
:1000A000371500801305C5E9B7150080938545E92C
:1000B00063F7A50023A005009105E3EDA5FE371524
:1000C0000080130545E9B7150080938545E963FC79
:1000D000A50037160080130646E9144294C1910525
:1000E0001106E3ECA5FE97100000E78080BE9700A4
:1000F0000000E78000240000397106C016C21AC44F
:100100001EC672C876CA7ACC7ECE2AD02ED232D4FF
:1001100036D63AD83EDA42DC46DE33050100EF003F
:10012000A002824092422243B243424ED24E624FDC
:10013000F24F025592552256B2564257D257625844
:10014000F258216173002030411106C622C42A846E
:1001500097100000E78080B7FD5563DAA50022857F
:100160002244B2404101171300006700A3B0B70555
:100170000080FD156D8DB145637EB500B71500801B
:10018000938545E60A052E951C4189C72244B24055
:10019000410182872244B2404101171300006700E9
:1001A00083AD828041111305000802C663F6A500E5
:1001B0002306B100054649A813D5B50019ED13D59E
:1001C000650093F5F503136505FC2306A10093E58F
:1001D0000508A306B1000946BDA013D505011DE51C
:1001E00013D5C50013D6650093F5F503136505FE19
:1001F0002306A1001376F60313660608A306C100C2
:1002000093E505082307B1000D4635A813D5250150
:1002100013D6C50093D6650093F5F503136505FF66
:100220002306A1001376F60313660608A306C10091
:1002300013F6F603136606082307C10093E50508C5
:10024000A307B1001146AA8568002A96B70602F0F6
:10025000D84241831377F70F65DF93F5F50F050556
:100260008CC26305C50083450500DDB7014541012A
:100270008280797106D60841D04994492AC632D283
:1002800036D0C8459045D4418C412ACE32CC36CAAE
:100290002EC868000C0897000000E780C07DB250AF
:1002A0004561828005C23385C500370602F083C6EA
:1002B0000500584241831377F70F65DF850514C2A7
:1002C000E397A5FE01458280370500F04841B75508
:1002D00004E99385552D3335B5024D819305F5FF1E
:1002E000370502F00CC54C454176130606CFF18D5B
:1002F00093E575004CC50C498D8985E148416181C4
:1003000001CD370502F00C41504141821376F60FC2
:1003100001C693F5F50F0CC18280371500801305D7
:10032000F5D3B14597000000E78060390000757192
:1003300006C722C526C34AC1CEDED2DCD6DADAD859
:10034000DED6E2D4E6D2EAD0EECE97100000E78007
:1003500060962A84214597100000E7806096371543
:100360000080834555E9854491C51375840011E9E2
:1003700085C03DA681448545A30AB5E81375840070
:1003800065D9214597100000E7802093639A0430D7
:1003900097100000E78000922A8421459710000002
:1003A000E780009237150080834565E9854491C553
:1003B0001375840011E985C0E5A481448545230BAC
:1003C000B5E81375840065D9214597100000E780D2
:1003D000C08E6397042C370500F04841B75504E9F7
:1003E0009385552D3335B5024D817D15B70502F046
:1003F00088C5C8454176130606CF718D1365750013
:10040000C8C597100000E780E08A2A84214597102C
:100410000000E780E08A37150080834575E9854450
:1004200091C51375840011E985C09DAC8144854553
:10043000A30BB5E81375840065D92145971000001A
:10044000E780A087639E0424A808AAC0371500800F
:100450001305C5D52AC4854426C602C837150080B1
:10046000130545E62ACC02CE88002C009700000038
:10047000E7806060370401F008441365150008C484
:1004800008441365250008C408441365450008C4E2
:1004900008441365850008C4370502F04C4193E514
:1004A00025004CC1214597100000E78000810565BB
:1004B0001305058097100000E780E0804840799997
:1004C00048C048401365250048C048406D9948C061
:1004D00048401365850048C097000000E780807D94
:1004E0002A84214597000000E780807D3715008031
:1004F000834585E96387051813758400631B051818
:100500006390041AB70401F0138B4400370C04F015
:10051000370500801304656D37150080930945D7B2
:10052000130AC103930A0104B70C03F0370D00F05E
:1005300037F5FA02930D0508378500801309150079
:10054000938BCC00CC40C84085899DE9136515008C
:100550002320AB00CC40C84089898DC97599C8C09B
:10056000CC40C84091899DC96D99C8C0CC40C84055
:10057000A1898DCD5D99C8C0884063500504F1A85C
:100580007999C8C0CC40C8408989E9F9136525002C
:100590002320AB00CC40C8409189F9F51365450094
:1005A0002320AB00CC40C840A189E9F51365850044
:1005B0002320AB0088406342050A03250C002181FB
:1005C0001375F50F2AD603250C0041811375F50F1D
:1005D0002AD803250C0061812ADA03250C00137543
:1005E000F50F2ADC68102AC422C608182AC822CAB5
:1005F00048182ACC22CE28182AD022D2A8082ADECF
:10060000CEC01545AAC282C42800AAC81145AACAEC
:100610005285D68597000000E780E04503A5CC0011
:10062000799923A6AC0003258D0031C133D5AD02E5
:10063000B3352503BD81138615003355C50223A2AA
:10064000BC0023A4AC0003A5CC001365150023A0B7
:10065000AB0003A50C0175DDF5B53715008013055A
:1006600045D6AD4597000000E780600500003715CE
:100670000080130505CEE54597000000E7802004C3
:10068000000081448545230CB5E813758400E30917
:1006900005E6214597000000E7802062E38404E638
:1006A00037150080130545D19305B002970000006F
:1006B000E780E0000000084101A0411106C6970054
:1006C0000000E78020360000411106C697000000B8
:1006D000E780403500001D7186CEA2CCA6CACAC8EC
:1006E000CEC6D2C4D6C2DAC05EDE62DC66DA6AD8B2
:1006F00014412E8D13D64600130510279305700262
:10070000636DA60A81453716B7D19302967579763F
:100710001303068F41669303F6FFB787EB51138EE1
:10072000F7511308C0F9930EE6FF37160080930FB8
:10073000C6D99308910037E6F505130FF60F3685F5
:10074000B3B65602B582338766022A97B37777002D
:10075000B3B7C703958313941700B38707033E9776
:1007600006073377D701B307F4013384B80003C613
:100770000700838717007E9783041700034707004D
:100780002302F402A301C40223039402A302E4029D
:10079000F115E366AFFA93857502130630066342DE
:1007A000D602294563D7A606FD15130591002E959F
:1007B000138606032300C50041A013063006E3524A
:1007C000D6FE41651306F5FF758E3787EB5113078B
:1007D000F7513336E60215821307C0F93307E602F4
:1007E000BA9686067915758DF915B7160080938629
:1007F000C6D93695830615000345050013079100F9
:100800002E97A300D7002300A700B2862945E3CD89
:10081000A6F813951600F915371600801306C6D9E9
:100820003295030615000345050093069100AE9628
:10083000A380C6002380A60003250D009306910027
:100840001307700213761500370A110019C2130A34
:10085000B002B309B7403389B6009315D501FD85C1
:1008600083268D0037170080130747E68544B3FAC7
:10087000E500639B9602032CCD00B38CC90063F5A1
:100880008C03218935E103450D0285458D460546DA
:100890006303D5002A860D8A33059C4163CAC508C7
:1008A00059EAAA8B014565A06A85D28556869700CC
:1008B0000000E780001811E98325CD0103258D0193
:1008C000D445CA854E868296AA842685425DD25C2E
:1008D000625CF25B064B964A264AB6494649D644C4
:1008E0006644F64025618280032B4D00130500030A
:1008F000834B0D022322AD00854423009D026A85AF
:10090000D285568697000000E780A0125DFD034562
:100910000D0285458D4605466303D5002A860D8A5E
:1009200033059C4163CBC50001EEAA8A014571A045
:100930008D456319B600814B19A88D45631AB6061B
:10094000814AA5A893051500058193DB15001304C2
:1009500015007D1419C80326CD0103258D018325BB
:100960004D00104A029675D5B5A0032B4D006A853F
:10097000D285568697000000E780A00B854431F5AC
:100980008325CD0103258D01D445CA854E868296E7
:100990000DFD03298D018329CD0113841B007D14D6
:1009A00025C803A609014A85DA8502966DD931BFAB
:1009B00093051500058193DA1500130415007D14C5
:1009C00001CC0326CD0103258D0183254D00104A5E
:1009D000029675D58544D5BD8325CD01032A4D00EA
:1009E00003258D01D445CA854E8682968544E31E33
:1009F00005EC03298D018329CD0113841A007D1490
:100A000011C803A609014A85D28502966DD975BD24
:100A1000814465BD814423226D0123007D0375B5AA
:100A2000411106C697000000E78020270000411111
:100A300006C622C426C2B70611003284AA8463897E
:100A4000D500D04C884C104A0296AA85054589ED00
:100A500019C8CC4C884CDC45A285014692442244FE
:100A6000B24041018287014592442244B240410193
:100A700082801D7186CEA2CCA6CACAC8CEC6D2C4F8
:100A8000D6C2DAC05EDE62DC66DA6AD802C4130659
:100A9000000232C60D462304C10202C802CC9045B2
:100AA0002AD0371500801305C5CF2AD26309061056
:100AB000C84583A9450003A905004E8A63E3A90040
:100AC0002A8A63080A16832649008DC20325090075
:100AD000AA96370702F0834705004443C18093F488
:100AE000F40FE5DC05051CC3E317D5FE83AC050157
:100AF00003AB4501130DC90013040601930A8100DD
:100B0000894B37050080130C656BD284032544FFA5
:100B10002AC60305C4002304A102032584FF2AC4B6
:100B20005040084409CE8145630E76016373650920
:100B30000E0566954C41639685010841084185453F
:100B400011A081452EC82ACA0326C4FF084009CE39
:100B50008145630C7601637E65050E0566954C4103
:100B6000639285050841084185452ECC2ACE032590
:100B700004FF637065050E05B385AC008841D04164
:100B8000D685029669E5FD14D5C492560255832593
:100B9000CDFF03260D00D446210D130404028296D6
:100BA00035D575A081452ECC2ACE032504FFE364FC
:100BB00065FDDA8597000000E78040B100008849B4
:100BC000D04983A9450003A905004E8A63E3C90003
:100BD000328A63000A06032649000DC283250900F4
:100BE0002E96B70602F003C70500DC42C18393F7D7
:100BF000F70FE5DF850598C2E397C5FE130BC90023
:100C000093044500930A81005284904003A5C4FFD9
:100C1000D68502960DED7D1411CC92560255832592
:100C2000CBFF03260B00D446210BA104829671DD75
:100C300039A8014A637F3A010255925693153A004A
:100C40003306B9000C425042D446829619C105457C
:100C500011A00145425DD25C625CF25B064B964A94
:100C6000264AB6494649D6446644F6402561828004
:100C700001A001A08280411106C697000000E78014
:100C8000000311C597000000E7800002E5BF05459D
:100C9000B24041018280370500F0232005000F009B
:100CA000300301A0730050108280732540F18280D0
:100CB00073250030828073200530828073300530C8
:100CC000828073204530828073252034828097F2A1
:0E0CD000FFFF9382A24273905230828001A0F7
:100CE000617474656D707420746F206469766964D2
:100CF00065206279207A65726F000000A201008091
:100D00000400000004000000A4020080A401008090
:100D10007202008063616C6C656420604F7074695E
:100D20006F6E3A3A756E77726170282960206F6E27
:100D3000206120604E6F6E65602076616C75655332
:100D4000657269616C206661756C7457696E645375
:100D50006F636B20302E310D0A0000004B0D0080B8
:100D60000E00000048656C6C6F2070616E69632036
:100D70000D0A0000640E0080000000006F0D00806E
:100D8000010000006F0D0080010000006F0D008069
:100D900001000000700D0080020000003030303192
:100DA0003032303330343035303630373038303917
:100DB000313031313132313331343135313631370F
:100DC00031383139323032313232323332343235F5
:100DD00032363237323832393330333133323333DB
:100DE00033343335333633373338333934303431C1
:100DF00034323433343434353436343734383439A7
:100E0000353035313532353335343535353635379E
:100E10003538353936303631363236333634363584
:100E2000363636373638363937303731373237336A
:100E30003734373537363737373837393830383150
:100E40003832383338343835383638373838383936
:100E5000393039313932393339343935393639372E
:100E600039383939720C0080720C008000000000A3
:100E7000720C0080720C0080720C00800000000078
:100E8000720C0080720C0080720C00800000000068
:040E9000C802008014
:040000058000000077
:00000001FF
