:0200000480007A
:10000000B7000080678080007350403073504034E8
:1000100081400141814101428142014381430144C8
:100020008144014581450146814601478147014898
:10003000814801498149014A814A014B814B014C68
:10004000814C014D814D014E814E014F814F9711E1
:10005000000093812111732640F1B70200009382C2
:10006000020063F4C2006F007003178100001301E7
:1000700061F9B712000093820280B3025602330185
:100080005140330401006F004000411106C6970043
:100090000000E780807A21C997000000E780C079DE
:1000A0003715008013054596B71500809385059692
:1000B00063F7A50023A005009105E3EDA5FE371524
:1000C000008013050596B71500809385059663FC9F
:1000D000A5003716008013060696144294C19105B8
:1000E0001106E3ECA5FE97000000E780807A9700F8
:1000F0000000E78000240000397106C016C21AC44F
:100100001EC672C876CA7ACC7ECE2AD02ED232D4FF
:1001100036D63AD83EDA42DC46DE33050100EF003F
:10012000A002824092422243B243424ED24E624FDC
:10013000F24F025592552256B2564257D257625844
:10014000F258216173002030411106C622C42A846E
:1001500097000000E7808073FD5563DAA5002285D3
:100160002244B2404101170300006700A36CB705A9
:100170000080FD156D8DB145637EB500B71500801B
:10018000938505930A052E951C4189C72244B240E8
:10019000410182872244B2404101170300006700F9
:1001A0008369828041111305000802C663F6A50029
:1001B0002306B100054649A813D5B50019ED13D59E
:1001C000650093F5F503136505FC2306A10093E58F
:1001D0000508A306B1000946BDA013D505011DE51C
:1001E00013D5C50013D6650093F5F503136505FE19
:1001F0002306A1001376F60313660608A306C100C2
:1002000093E505082307B1000D4635A813D5250150
:1002100013D6C50093D6650093F5F503136505FF66
:100220002306A1001376F60313660608A306C10091
:1002300013F6F603136606082307C10093E50508C5
:10024000A307B1001146AA8568002A96B70602F0F6
:10025000D84241831377F70F65DF93F5F50F050556
:100260008CC26305C50083450500DDB7014541012A
:100270008280797106D60841D04994492AC632D283
:1002800036D0C8459045D4418C412ACE32CC36CAAE
:100290002EC868000C0897000000E780C039B250F3
:1002A0004561828005C23385C500370602F083C6EA
:1002B0000500584241831377F70F65DF850514C2A7
:1002C000E397A5FE01458280370500F04841B75508
:1002D00004E99385552D3335B5024D819305F5FF1E
:1002E000370502F00CC54C454176130606CFF18D5B
:1002F00093E575004CC50C498D8985E148416181C4
:1003000001CD370502F00C41504141821376F60FC2
:1003100001C693F5F50F0CC18280371500801305D7
:10032000F58FB14597000000E780402E00007971FD
:1003300006D622D426D297000000E780A0532A8454
:10034000214597000000E780A053371500808345C2
:100350001596854491C51375840011E985C041AC9B
:1003600081448545A300B5961375840065D9214560
:1003700097000000E7806050639B04269700000010
:10038000E780404F2A84214597000000E780404FD6
:100390003715008083452596854491C513758400E3
:1003A00011E985C0A9A4814485452301B59613753B
:1003B000840065D9214597000000E780004C6398D0
:1003C0000422370500F04841B75504E99385552DBF
:1003D0003335B5024D817D15B70502F088C5C84596
:1003E0004176130606CF718D13657500C8C5970059
:1003F0000000E78020482A84214597000000E7801C
:100400002048371500808345359685446382051C56
:10041000137584006316051C639B041C08102AC214
:10042000371500801305C5912AC405452AC602C8A0
:1004300037150080130505932ACC02CE48002C0006
:1004400097000000E780201F370401F0084413657F
:10045000150008C408441365250008C40844136542
:10046000450008C408441365850008C4370502F038
:100470004C4193E525004CC1214597000000E780E1
:10048000C03F05651305058097000000E780A03F89
:100490004840799948C048401365250048C0484005
:1004A0006D9948C0484093658500130544000CC110
:1004B00037080040370603F0B70800F0B7E5F50548
:1004C00093820510B7850080938715009305C600B9
:1004D000B766CD1D1383065044405840858895E883
:1004E0001367170018C14440584089888DC8759B10
:1004F00058C044405840918895C86D9B58C04440AE
:100500005840A1889DC85D9B58C01840635D070294
:1005100061A8799B58C0444058408988E9F813671E
:10052000270018C1444058409188E1F813674700FC
:1005300018C144405840A188F9F41367870018C1D6
:1005400018406343070618404446F99844C683A4FC
:100550008800B376070113B7140085E625E3B3D608
:10056000920233B7F6023D8393041700B3D6960286
:1005700058C214C6544693E6160094C1144AFDDED0
:10058000A1BF0DEFB356930233B7F6023D83930438
:100590001700B3D6960258C214C6544693E6160006
:1005A00094C1144AFDDE0DBF371500801305459236
:1005B000AD4597000000E78060050000371500801A
:1005C0001305058AE54597000000E7802004000038
:1005D00081448545A301B59613758400E30E05E2B9
:1005E000214597000000E7804029E38904E23715A0
:1005F00000801305458D9305B00297000000E78049
:10060000E0000000084101A0411106C6970000006B
:10061000E78080010000411106C697000000E780D6
:10062000A0000000411106C697000000E780E0220C
:1006300000001D7186CEA2CCA6CACAC8CEC6D2C43E
:10064000D6C2DAC05EDE62DC66DA6AD802C413069D
:10065000000232C60D462304C10202C802CC9045F6
:100660002AD0371500801305C58B2AD263090610DE
:10067000C84583A9450003A905004E8A63E3A90084
:100680002A8A63080A16832649008DC203250900B9
:10069000AA96370702F0834705004443C18093F4CC
:1006A000F40FE5DC05051CC3E317D5FE83AC05019B
:1006B00003AB4501130DC90013040601930A810021
:1006C000894B37050080130C4560D284032544FF15
:1006D0002AC60305C4002304A102032584FF2AC4FB
:1006E0005040084409CE8145630E76016373650965
:1006F0000E0566954C416396850108410841854584
:1007000011A081452EC82ACA0326C4FF084009CE7D
:100710008145630C7601637E65050E0566954C4147
:10072000639285050841084185452ECC2ACE0325D4
:1007300004FF637065050E05B385AC008841D041A8
:10074000D685029669E5FD14D5C4925602558325D7
:10075000CDFF03260D00D446210D1304040282961A
:1007600035D575A081452ECC2ACE032504FFE36440
:1007700065FDDA8597000000E78020EA00008849DF
:10078000D04983A9450003A905004E8A63E3C90047
:10079000328A63000A06032649000DC28325090038
:1007A0002E96B70602F003C70500DC42C18393F71B
:1007B000F70FE5DF850598C2E397C5FE130BC90067
:1007C00093044500930A81005284904003A5C4FF1E
:1007D000D68502960DED7D1411CC925602558325D7
:1007E000CBFF03260B00D446210BA104829671DDBA
:1007F00039A8014A637F3A010255925693153A008F
:100800003306B9000C425042D446829619C10545C0
:1008100011A00145425DD25C625CF25B064B964AD8
:10082000264AB6494649D6446644F6402561828048
:1008300001A001A08280411106C697000000E78058
:10084000000311C597000000E7800002E5BF0545E1
:10085000B24041018280370500F0232005000F00DF
:10086000300301A0730050108280732540F1828014
:10087000732500308280732005308280733005300C
:1008800082807320453082807325203482809702D5
:0E08900000009382A28673905230828001A0F5
:1008A000617474656D707420746F20646976696416
:1008B00065206279207A65726F000000A2010080D5
:1008C0000400000004000000A4020080A4010080D5
:1008D0007202008063616C6C656420604F707469A3
:1008E0006F6E3A3A756E77726170282960206F6E6C
:1008F000206120604E6F6E65602076616C75655377
:10090000657269616C206661756C7457696E6453B9
:100910006F636B20302E310D0A0000000B09008040
:100920000E00000048656C6C6F2070616E6963009A
:100930003208008032080080000000003208008089
:100940003208008032080080000000003208008079
:10095000320800803208008000000000C8020080D9
:040000058000000077
:00000001FF
